{
  "_format": "hh-sol-artifact-1",
  "contractName": "StMATIC",
  "sourceName": "contracts/StMATIC.sol",
  "abi": [
    {
      "anonymous": false,
      "inputs": [
        {
          "indexed": true,
          "internalType": "address",
          "name": "owner",
          "type": "address"
        },
        {
          "indexed": true,
          "internalType": "address",
          "name": "spender",
          "type": "address"
        },
        {
          "indexed": false,
          "internalType": "uint256",
          "name": "value",
          "type": "uint256"
        }
      ],
      "name": "Approval",
      "type": "event"
    },
    {
      "anonymous": false,
      "inputs": [
        {
          "indexed": true,
          "internalType": "address",
          "name": "_from",
          "type": "address"
        },
        {
          "indexed": true,
          "internalType": "uint256",
          "name": "_id",
          "type": "uint256"
        },
        {
          "indexed": true,
          "internalType": "uint256",
          "name": "_amountClaimed",
          "type": "uint256"
        },
        {
          "indexed": false,
          "internalType": "uint256",
          "name": "_amountBurned",
          "type": "uint256"
        }
      ],
      "name": "ClaimTokensEvent",
      "type": "event"
    },
    {
      "anonymous": false,
      "inputs": [
        {
          "indexed": true,
          "internalType": "uint256",
          "name": "_amountDelegated",
          "type": "uint256"
        },
        {
          "indexed": true,
          "internalType": "uint256",
          "name": "_remainder",
          "type": "uint256"
        }
      ],
      "name": "DelegateEvent",
      "type": "event"
    },
    {
      "anonymous": false,
      "inputs": [
        {
          "indexed": true,
          "internalType": "uint256",
          "name": "_amount",
          "type": "uint256"
        }
      ],
      "name": "DistributeRewardsEvent",
      "type": "event"
    },
    {
      "anonymous": false,
      "inputs": [
        {
          "indexed": false,
          "internalType": "address",
          "name": "account",
          "type": "address"
        }
      ],
      "name": "Paused",
      "type": "event"
    },
    {
      "anonymous": false,
      "inputs": [
        {
          "indexed": true,
          "internalType": "address",
          "name": "_from",
          "type": "address"
        },
        {
          "indexed": true,
          "internalType": "uint256",
          "name": "_amount",
          "type": "uint256"
        }
      ],
      "name": "RequestWithdrawEvent",
      "type": "event"
    },
    {
      "anonymous": false,
      "inputs": [
        {
          "indexed": true,
          "internalType": "bytes32",
          "name": "role",
          "type": "bytes32"
        },
        {
          "indexed": true,
          "internalType": "bytes32",
          "name": "previousAdminRole",
          "type": "bytes32"
        },
        {
          "indexed": true,
          "internalType": "bytes32",
          "name": "newAdminRole",
          "type": "bytes32"
        }
      ],
      "name": "RoleAdminChanged",
      "type": "event"
    },
    {
      "anonymous": false,
      "inputs": [
        {
          "indexed": true,
          "internalType": "bytes32",
          "name": "role",
          "type": "bytes32"
        },
        {
          "indexed": true,
          "internalType": "address",
          "name": "account",
          "type": "address"
        },
        {
          "indexed": true,
          "internalType": "address",
          "name": "sender",
          "type": "address"
        }
      ],
      "name": "RoleGranted",
      "type": "event"
    },
    {
      "anonymous": false,
      "inputs": [
        {
          "indexed": true,
          "internalType": "bytes32",
          "name": "role",
          "type": "bytes32"
        },
        {
          "indexed": true,
          "internalType": "address",
          "name": "account",
          "type": "address"
        },
        {
          "indexed": true,
          "internalType": "address",
          "name": "sender",
          "type": "address"
        }
      ],
      "name": "RoleRevoked",
      "type": "event"
    },
    {
      "anonymous": false,
      "inputs": [
        {
          "indexed": true,
          "internalType": "address",
          "name": "_from",
          "type": "address"
        },
        {
          "indexed": true,
          "internalType": "uint256",
          "name": "_amount",
          "type": "uint256"
        }
      ],
      "name": "SubmitEvent",
      "type": "event"
    },
    {
      "anonymous": false,
      "inputs": [
        {
          "indexed": true,
          "internalType": "address",
          "name": "from",
          "type": "address"
        },
        {
          "indexed": true,
          "internalType": "address",
          "name": "to",
          "type": "address"
        },
        {
          "indexed": false,
          "internalType": "uint256",
          "name": "value",
          "type": "uint256"
        }
      ],
      "name": "Transfer",
      "type": "event"
    },
    {
      "anonymous": false,
      "inputs": [
        {
          "indexed": false,
          "internalType": "address",
          "name": "account",
          "type": "address"
        }
      ],
      "name": "Unpaused",
      "type": "event"
    },
    {
      "anonymous": false,
      "inputs": [
        {
          "indexed": true,
          "internalType": "address",
          "name": "_from",
          "type": "address"
        },
        {
          "indexed": true,
          "internalType": "uint256",
          "name": "_amount",
          "type": "uint256"
        }
      ],
      "name": "WithdrawTotalDelegatedEvent",
      "type": "event"
    },
    {
      "inputs": [],
      "name": "DAO",
      "outputs": [
        {
          "internalType": "bytes32",
          "name": "",
          "type": "bytes32"
        }
      ],
      "stateMutability": "view",
      "type": "function"
    },
    {
      "inputs": [],
      "name": "DEFAULT_ADMIN_ROLE",
      "outputs": [
        {
          "internalType": "bytes32",
          "name": "",
          "type": "bytes32"
        }
      ],
      "stateMutability": "view",
      "type": "function"
    },
    {
      "inputs": [
        {
          "internalType": "address",
          "name": "owner",
          "type": "address"
        },
        {
          "internalType": "address",
          "name": "spender",
          "type": "address"
        }
      ],
      "name": "allowance",
      "outputs": [
        {
          "internalType": "uint256",
          "name": "",
          "type": "uint256"
        }
      ],
      "stateMutability": "view",
      "type": "function"
    },
    {
      "inputs": [
        {
          "internalType": "address",
          "name": "spender",
          "type": "address"
        },
        {
          "internalType": "uint256",
          "name": "amount",
          "type": "uint256"
        }
      ],
      "name": "approve",
      "outputs": [
        {
          "internalType": "bool",
          "name": "",
          "type": "bool"
        }
      ],
      "stateMutability": "nonpayable",
      "type": "function"
    },
    {
      "inputs": [
        {
          "internalType": "address",
          "name": "account",
          "type": "address"
        }
      ],
      "name": "balanceOf",
      "outputs": [
        {
          "internalType": "uint256",
          "name": "",
          "type": "uint256"
        }
      ],
      "stateMutability": "view",
      "type": "function"
    },
    {
      "inputs": [
        {
          "internalType": "uint256",
          "name": "_tokenId",
          "type": "uint256"
        }
      ],
      "name": "claimTokens",
      "outputs": [],
      "stateMutability": "nonpayable",
      "type": "function"
    },
    {
      "inputs": [
        {
          "internalType": "uint256",
          "name": "_tokenId",
          "type": "uint256"
        }
      ],
      "name": "claimTokens2StMatic",
      "outputs": [],
      "stateMutability": "nonpayable",
      "type": "function"
    },
    {
      "inputs": [
        {
          "internalType": "uint256",
          "name": "_balance",
          "type": "uint256"
        }
      ],
      "name": "convertMaticToStMatic",
      "outputs": [
        {
          "internalType": "uint256",
          "name": "",
          "type": "uint256"
        },
        {
          "internalType": "uint256",
          "name": "",
          "type": "uint256"
        },
        {
          "internalType": "uint256",
          "name": "",
          "type": "uint256"
        }
      ],
      "stateMutability": "view",
      "type": "function"
    },
    {
      "inputs": [
        {
          "internalType": "uint256",
          "name": "_balance",
          "type": "uint256"
        }
      ],
      "name": "convertStMaticToMatic",
      "outputs": [
        {
          "internalType": "uint256",
          "name": "",
          "type": "uint256"
        },
        {
          "internalType": "uint256",
          "name": "",
          "type": "uint256"
        },
        {
          "internalType": "uint256",
          "name": "",
          "type": "uint256"
        }
      ],
      "stateMutability": "view",
      "type": "function"
    },
    {
      "inputs": [],
      "name": "dao",
      "outputs": [
        {
          "internalType": "address",
          "name": "",
          "type": "address"
        }
      ],
      "stateMutability": "view",
      "type": "function"
    },
    {
      "inputs": [],
      "name": "decimals",
      "outputs": [
        {
          "internalType": "uint8",
          "name": "",
          "type": "uint8"
        }
      ],
      "stateMutability": "view",
      "type": "function"
    },
    {
      "inputs": [
        {
          "internalType": "address",
          "name": "spender",
          "type": "address"
        },
        {
          "internalType": "uint256",
          "name": "subtractedValue",
          "type": "uint256"
        }
      ],
      "name": "decreaseAllowance",
      "outputs": [
        {
          "internalType": "bool",
          "name": "",
          "type": "bool"
        }
      ],
      "stateMutability": "nonpayable",
      "type": "function"
    },
    {
      "inputs": [],
      "name": "delegate",
      "outputs": [],
      "stateMutability": "nonpayable",
      "type": "function"
    },
    {
      "inputs": [],
      "name": "delegationLowerBound",
      "outputs": [
        {
          "internalType": "uint256",
          "name": "",
          "type": "uint256"
        }
      ],
      "stateMutability": "view",
      "type": "function"
    },
    {
      "inputs": [],
      "name": "distributeRewards",
      "outputs": [],
      "stateMutability": "nonpayable",
      "type": "function"
    },
    {
      "inputs": [],
      "name": "entityFees",
      "outputs": [
        {
          "internalType": "uint8",
          "name": "dao",
          "type": "uint8"
        },
        {
          "internalType": "uint8",
          "name": "operators",
          "type": "uint8"
        },
        {
          "internalType": "uint8",
          "name": "insurance",
          "type": "uint8"
        }
      ],
      "stateMutability": "view",
      "type": "function"
    },
    {
      "inputs": [],
      "name": "fxStateRootTunnel",
      "outputs": [
        {
          "internalType": "contract IFxStateRootTunnel",
          "name": "",
          "type": "address"
        }
      ],
      "stateMutability": "view",
      "type": "function"
    },
    {
      "inputs": [
        {
          "internalType": "contract IValidatorShare",
          "name": "_validatorShare",
          "type": "address"
        }
      ],
      "name": "getLiquidRewards",
      "outputs": [
        {
          "internalType": "uint256",
          "name": "",
          "type": "uint256"
        }
      ],
      "stateMutability": "view",
      "type": "function"
    },
    {
      "inputs": [
        {
          "internalType": "uint256",
          "name": "_tokenId",
          "type": "uint256"
        }
      ],
      "name": "getMaticFromTokenId",
      "outputs": [
        {
          "internalType": "uint256",
          "name": "",
          "type": "uint256"
        }
      ],
      "stateMutability": "view",
      "type": "function"
    },
    {
      "inputs": [],
      "name": "getMinValidatorBalance",
      "outputs": [
        {
          "internalType": "uint256",
          "name": "",
          "type": "uint256"
        }
      ],
      "stateMutability": "view",
      "type": "function"
    },
    {
      "inputs": [
        {
          "internalType": "bytes32",
          "name": "role",
          "type": "bytes32"
        }
      ],
      "name": "getRoleAdmin",
      "outputs": [
        {
          "internalType": "bytes32",
          "name": "",
          "type": "bytes32"
        }
      ],
      "stateMutability": "view",
      "type": "function"
    },
    {
      "inputs": [],
      "name": "getTotalPooledMatic",
      "outputs": [
        {
          "internalType": "uint256",
          "name": "",
          "type": "uint256"
        }
      ],
      "stateMutability": "view",
      "type": "function"
    },
    {
      "inputs": [
        {
          "internalType": "contract IValidatorShare",
          "name": "_validatorShare",
          "type": "address"
        }
      ],
      "name": "getTotalStake",
      "outputs": [
        {
          "internalType": "uint256",
          "name": "",
          "type": "uint256"
        },
        {
          "internalType": "uint256",
          "name": "",
          "type": "uint256"
        }
      ],
      "stateMutability": "view",
      "type": "function"
    },
    {
      "inputs": [],
      "name": "getTotalStakeAcrossAllValidators",
      "outputs": [
        {
          "internalType": "uint256",
          "name": "",
          "type": "uint256"
        }
      ],
      "stateMutability": "view",
      "type": "function"
    },
    {
      "inputs": [
        {
          "internalType": "bytes32",
          "name": "role",
          "type": "bytes32"
        },
        {
          "internalType": "address",
          "name": "account",
          "type": "address"
        }
      ],
      "name": "grantRole",
      "outputs": [],
      "stateMutability": "nonpayable",
      "type": "function"
    },
    {
      "inputs": [
        {
          "internalType": "bytes32",
          "name": "role",
          "type": "bytes32"
        },
        {
          "internalType": "address",
          "name": "account",
          "type": "address"
        }
      ],
      "name": "hasRole",
      "outputs": [
        {
          "internalType": "bool",
          "name": "",
          "type": "bool"
        }
      ],
      "stateMutability": "view",
      "type": "function"
    },
    {
      "inputs": [
        {
          "internalType": "address",
          "name": "spender",
          "type": "address"
        },
        {
          "internalType": "uint256",
          "name": "addedValue",
          "type": "uint256"
        }
      ],
      "name": "increaseAllowance",
      "outputs": [
        {
          "internalType": "bool",
          "name": "",
          "type": "bool"
        }
      ],
      "stateMutability": "nonpayable",
      "type": "function"
    },
    {
      "inputs": [
        {
          "internalType": "address",
          "name": "_nodeOperator",
          "type": "address"
        },
        {
          "internalType": "address",
          "name": "_token",
          "type": "address"
        },
        {
          "internalType": "address",
          "name": "_dao",
          "type": "address"
        },
        {
          "internalType": "address",
          "name": "_insurance",
          "type": "address"
        },
        {
          "internalType": "address",
          "name": "_stakeManager",
          "type": "address"
        },
        {
          "internalType": "address",
          "name": "_poLidoNFT",
          "type": "address"
        }
      ],
      "name": "initialize",
      "outputs": [],
      "stateMutability": "nonpayable",
      "type": "function"
    },
    {
      "inputs": [],
      "name": "insurance",
      "outputs": [
        {
          "internalType": "address",
          "name": "",
          "type": "address"
        }
      ],
      "stateMutability": "view",
      "type": "function"
    },
    {
      "inputs": [],
      "name": "lastWithdrawnValidatorId",
      "outputs": [
        {
          "internalType": "uint256",
          "name": "",
          "type": "uint256"
        }
      ],
      "stateMutability": "view",
      "type": "function"
    },
    {
      "inputs": [],
      "name": "minValidatorBalance",
      "outputs": [
        {
          "internalType": "uint256",
          "name": "",
          "type": "uint256"
        }
      ],
      "stateMutability": "view",
      "type": "function"
    },
    {
      "inputs": [],
      "name": "name",
      "outputs": [
        {
          "internalType": "string",
          "name": "",
          "type": "string"
        }
      ],
      "stateMutability": "view",
      "type": "function"
    },
    {
      "inputs": [],
      "name": "nodeOperator",
      "outputs": [
        {
          "internalType": "contract INodeOperatorRegistry",
          "name": "",
          "type": "address"
        }
      ],
      "stateMutability": "view",
      "type": "function"
    },
    {
      "inputs": [],
      "name": "paused",
      "outputs": [
        {
          "internalType": "bool",
          "name": "",
          "type": "bool"
        }
      ],
      "stateMutability": "view",
      "type": "function"
    },
    {
      "inputs": [],
      "name": "poLidoNFT",
      "outputs": [
        {
          "internalType": "contract IPoLidoNFT",
          "name": "",
          "type": "address"
        }
      ],
      "stateMutability": "view",
      "type": "function"
    },
    {
      "inputs": [
        {
          "internalType": "bytes32",
          "name": "role",
          "type": "bytes32"
        },
        {
          "internalType": "address",
          "name": "account",
          "type": "address"
        }
      ],
      "name": "renounceRole",
      "outputs": [],
      "stateMutability": "nonpayable",
      "type": "function"
    },
    {
      "inputs": [
        {
          "internalType": "uint256",
          "name": "_amount",
          "type": "uint256"
        }
      ],
      "name": "requestWithdraw",
      "outputs": [],
      "stateMutability": "nonpayable",
      "type": "function"
    },
    {
      "inputs": [],
      "name": "reservedFunds",
      "outputs": [
        {
          "internalType": "uint256",
          "name": "",
          "type": "uint256"
        }
      ],
      "stateMutability": "view",
      "type": "function"
    },
    {
      "inputs": [
        {
          "internalType": "bytes32",
          "name": "role",
          "type": "bytes32"
        },
        {
          "internalType": "address",
          "name": "account",
          "type": "address"
        }
      ],
      "name": "revokeRole",
      "outputs": [],
      "stateMutability": "nonpayable",
      "type": "function"
    },
    {
      "inputs": [],
      "name": "rewardDistributionLowerBound",
      "outputs": [
        {
          "internalType": "uint256",
          "name": "",
          "type": "uint256"
        }
      ],
      "stateMutability": "view",
      "type": "function"
    },
    {
      "inputs": [
        {
          "internalType": "address",
          "name": "_address",
          "type": "address"
        }
      ],
      "name": "setDaoAddress",
      "outputs": [],
      "stateMutability": "nonpayable",
      "type": "function"
    },
    {
      "inputs": [
        {
          "internalType": "uint256",
          "name": "_delegationLowerBound",
          "type": "uint256"
        }
      ],
      "name": "setDelegationLowerBound",
      "outputs": [],
      "stateMutability": "nonpayable",
      "type": "function"
    },
    {
      "inputs": [
        {
          "internalType": "uint8",
          "name": "_daoFee",
          "type": "uint8"
        },
        {
          "internalType": "uint8",
          "name": "_operatorsFee",
          "type": "uint8"
        },
        {
          "internalType": "uint8",
          "name": "_insuranceFee",
          "type": "uint8"
        }
      ],
      "name": "setFees",
      "outputs": [],
      "stateMutability": "nonpayable",
      "type": "function"
    },
    {
      "inputs": [
        {
          "internalType": "address",
          "name": "_fxStateRootTunnel",
          "type": "address"
        }
      ],
      "name": "setFxStateRootTunnel",
      "outputs": [],
      "stateMutability": "nonpayable",
      "type": "function"
    },
    {
      "inputs": [
        {
          "internalType": "address",
          "name": "_address",
          "type": "address"
        }
      ],
      "name": "setInsuranceAddress",
      "outputs": [],
      "stateMutability": "nonpayable",
      "type": "function"
    },
    {
      "inputs": [
        {
          "internalType": "address",
          "name": "_address",
          "type": "address"
        }
      ],
      "name": "setNodeOperatorAddress",
      "outputs": [],
      "stateMutability": "nonpayable",
      "type": "function"
    },
    {
      "inputs": [
        {
          "internalType": "address",
          "name": "_poLidoNFT",
          "type": "address"
        }
      ],
      "name": "setPoLidoNFT",
      "outputs": [],
      "stateMutability": "nonpayable",
      "type": "function"
    },
    {
      "inputs": [
        {
          "internalType": "uint256",
          "name": "_rewardDistributionLowerBound",
          "type": "uint256"
        }
      ],
      "name": "setRewardDistributionLowerBound",
      "outputs": [],
      "stateMutability": "nonpayable",
      "type": "function"
    },
    {
      "inputs": [
        {
          "internalType": "string",
          "name": "_version",
          "type": "string"
        }
      ],
      "name": "setVersion",
      "outputs": [],
      "stateMutability": "nonpayable",
      "type": "function"
    },
    {
      "inputs": [],
      "name": "stakeManager",
      "outputs": [
        {
          "internalType": "contract IStakeManager",
          "name": "",
          "type": "address"
        }
      ],
      "stateMutability": "view",
      "type": "function"
    },
    {
      "inputs": [
        {
          "internalType": "uint256",
          "name": "_amount",
          "type": "uint256"
        }
      ],
      "name": "submit",
      "outputs": [
        {
          "internalType": "uint256",
          "name": "",
          "type": "uint256"
        }
      ],
      "stateMutability": "nonpayable",
      "type": "function"
    },
    {
      "inputs": [
        {
          "internalType": "bytes4",
          "name": "interfaceId",
          "type": "bytes4"
        }
      ],
      "name": "supportsInterface",
      "outputs": [
        {
          "internalType": "bool",
          "name": "",
          "type": "bool"
        }
      ],
      "stateMutability": "view",
      "type": "function"
    },
    {
      "inputs": [],
      "name": "symbol",
      "outputs": [
        {
          "internalType": "string",
          "name": "",
          "type": "string"
        }
      ],
      "stateMutability": "view",
      "type": "function"
    },
    {
      "inputs": [],
      "name": "togglePause",
      "outputs": [],
      "stateMutability": "nonpayable",
      "type": "function"
    },
    {
      "inputs": [],
      "name": "token",
      "outputs": [
        {
          "internalType": "address",
          "name": "",
          "type": "address"
        }
      ],
      "stateMutability": "view",
      "type": "function"
    },
    {
      "inputs": [
        {
          "internalType": "uint256",
          "name": "",
          "type": "uint256"
        }
      ],
      "name": "token2WithdrawRequest",
      "outputs": [
        {
          "internalType": "uint256",
          "name": "amount2WithdrawFromStMATIC",
          "type": "uint256"
        },
        {
          "internalType": "uint256",
          "name": "validatorNonce",
          "type": "uint256"
        },
        {
          "internalType": "uint256",
          "name": "requestTime",
          "type": "uint256"
        },
        {
          "internalType": "address",
          "name": "validatorAddress",
          "type": "address"
        }
      ],
      "stateMutability": "view",
      "type": "function"
    },
    {
      "inputs": [],
      "name": "totalBuffered",
      "outputs": [
        {
          "internalType": "uint256",
          "name": "",
          "type": "uint256"
        }
      ],
      "stateMutability": "view",
      "type": "function"
    },
    {
      "inputs": [],
      "name": "totalSupply",
      "outputs": [
        {
          "internalType": "uint256",
          "name": "",
          "type": "uint256"
        }
      ],
      "stateMutability": "view",
      "type": "function"
    },
    {
      "inputs": [
        {
          "internalType": "address",
          "name": "recipient",
          "type": "address"
        },
        {
          "internalType": "uint256",
          "name": "amount",
          "type": "uint256"
        }
      ],
      "name": "transfer",
      "outputs": [
        {
          "internalType": "bool",
          "name": "",
          "type": "bool"
        }
      ],
      "stateMutability": "nonpayable",
      "type": "function"
    },
    {
      "inputs": [
        {
          "internalType": "address",
          "name": "sender",
          "type": "address"
        },
        {
          "internalType": "address",
          "name": "recipient",
          "type": "address"
        },
        {
          "internalType": "uint256",
          "name": "amount",
          "type": "uint256"
        }
      ],
      "name": "transferFrom",
      "outputs": [
        {
          "internalType": "bool",
          "name": "",
          "type": "bool"
        }
      ],
      "stateMutability": "nonpayable",
      "type": "function"
    },
    {
      "inputs": [],
      "name": "version",
      "outputs": [
        {
          "internalType": "string",
          "name": "",
          "type": "string"
        }
      ],
      "stateMutability": "view",
      "type": "function"
    },
    {
      "inputs": [
        {
          "internalType": "address",
          "name": "_validatorShare",
          "type": "address"
        }
      ],
      "name": "withdrawTotalDelegated",
      "outputs": [],
      "stateMutability": "nonpayable",
      "type": "function"
    }
  ],
  "bytecode": "0x608060405234801561001057600080fd5b506151d8806100206000396000f3fe608060405234801561001057600080fd5b50600436106103ba5760003560e01c8063745400c9116101f4578063a9059cbb1161011a578063d968447c116100ad578063ea99c2a61161007c578063ea99c2a61461084e578063f08711fe14610861578063f6794fdb146108c9578063fc0c546a146108dc57600080fd5b8063d968447c146107e6578063dd62ed3e146107f9578063e00222a014610832578063e062b10b1461083a57600080fd5b8063c89e4361116100e9578063c89e4361146107ae578063cc2a9a5b146107b6578063ce99b586146107c9578063d547741f146107d357600080fd5b8063a9059cbb1461076d578063bb208f5514610780578063c4ae316814610793578063c75e78321461079b57600080fd5b806391d14854116101925780639a3cac6a116101615780639a3cac6a14610735578063a217fddf14610748578063a245294714610750578063a457c2d71461075a57600080fd5b806391d14854146106c157806395d89b41146106d4578063964a7596146106dc57806398fabd3a1461072057600080fd5b8063788bc78c116101ce578063788bc78c146106645780637e978af81461067757806389cf32041461067f578063917a52f51461069357600080fd5b8063745400c91461062b5780637542ff951461063e5780637682c9021461065157600080fd5b806339509351116102e45780635c975abb1161027757806370a082311161024657806370a08231146105d257806370bf9fe9146105fb57806371975a3e1461060e578063720bcf1d1461061857600080fd5b80635c975abb14610599578063676e5550146105a45780636f4a2cd0146105b75780637029c90e146105bf57600080fd5b806346e04a2f116102b357806346e04a2f1461056a578063509c5df61461057d57806352349b171461058757806354fd4d501461059157600080fd5b8063395093511461051d5780633b573c4a146105305780633e8474b7146105435780634162169f1461055657600080fd5b806318160ddd1161035c5780632f2ff15d1161032b5780632f2ff15d146104d5578063313ce567146104e857806331bb3a97146104f757806336568abe1461050a57600080fd5b806318160ddd1461046f5780631e7ff8f61461047757806323b872dd1461049f578063248a9ca3146104b257600080fd5b8063095ea7b311610398578063095ea7b3146104275780630d7abc331461043a5780630d946b711461045257806315539d3f1461045a57600080fd5b806301ffc9a7146103bf578063023c5b08146103e757806306fdde0314610412575b600080fd5b6103d26103cd366004614cd9565b6108f0565b60405190151581526020015b60405180910390f35b60fb546103fa906001600160a01b031681565b6040516001600160a01b0390911681526020016103de565b61041a610927565b6040516103de9190614f09565b6103d2610435366004614b44565b6109b9565b6104446101055481565b6040519081526020016103de565b6104446109cf565b61046d610468366004614a0e565b610ad5565b005b603554610444565b61048a610485366004614a0e565b610b11565b604080519283526020830191909152016103de565b6103d26104ad366004614b03565b610b95565b6104446104c0366004614c9b565b60009081526097602052604090206001015490565b61046d6104e3366004614cb4565b610c46565b604051601281526020016103de565b61046d610505366004614c9b565b610c71565b61046d610518366004614cb4565b611125565b6103d261052b366004614b44565b6111a3565b61046d61053e366004614c9b565b6111df565b61046d610551366004614a0e565b6111ff565b610100546103fa906001600160a01b031681565b61046d610578366004614c9b565b61123b565b6104446101075481565b6104446101045481565b61041a61162f565b60c95460ff166103d2565b6104446105b2366004614a0e565b6116bd565b61046d611737565b60fe546103fa906001600160a01b031681565b6104446105e0366004614a0e565b6001600160a01b031660009081526033602052604090205490565b61046d610609366004614a0e565b611dac565b6104446101035481565b610444610626366004614c9b565b611de9565b61046d610639366004614c9b565b6120b6565b60fd546103fa906001600160a01b031681565b61046d61065f366004614c9b565b6128e5565b61046d610672366004614d03565b612905565b610444612923565b610101546103fa906001600160a01b031681565b6106a66106a1366004614c9b565b6129fb565b604080519384526020840192909252908201526060016103de565b6103d26106cf366004614cb4565b612a5f565b61041a612a8a565b60fc546106fc9060ff808216916101008104821691620100009091041683565b6040805160ff948516815292841660208401529216918101919091526060016103de565b61044460008051602061518383398151915281565b61046d610743366004614a0e565b612a99565b610444600081565b6104446101065481565b6103d2610768366004614b44565b612ad6565b6103d261077b366004614b44565b612b6f565b61046d61078e366004614a0e565b612b7c565b61046d612bb9565b61046d6107a9366004614a0e565b612be2565b61046d612f8f565b61046d6107c4366004614a81565b61337c565b6104446101085481565b61046d6107e1366004614cb4565b6134fd565b6106a66107f4366004614c9b565b613523565b610444610807366004614a48565b6001600160a01b03918216600090815260346020908152604080832093909416825291909152205490565b61044461356f565b61010a546103fa906001600160a01b031681565b61044461085c366004614c9b565b61359f565b6108a061086f366004614c9b565b610109602052600090815260409020805460018201546002830154600390930154919290916001600160a01b031684565b604080519485526020850193909352918301526001600160a01b031660608201526080016103de565b61046d6108d7366004614e01565b613725565b610102546103fa906001600160a01b031681565b60006001600160e01b03198216637965db0b60e01b148061092157506301ffc9a760e01b6001600160e01b03198316145b92915050565b606060368054610936906150c6565b80601f0160208091040260200160405190810160405280929190818152602001828054610962906150c6565b80156109af5780601f10610984576101008083540402835291602001916109af565b820191906000526020600020905b81548152906001019060200180831161099257829003601f168201915b5050505050905090565b60006109c63384846137cc565b50600192915050565b60fb546040516343781ec560e11b81526000600482018190529182916001600160a01b03909116906386f03d8a9060240160006040518083038186803b158015610a1857600080fd5b505afa158015610a2c573d6000803e3d6000fd5b505050506040513d6000823e601f3d908101601f19168201604052610a549190810190614b70565b805190915060001960005b82811015610acd576000610a8f858381518110610a7e57610a7e615132565b602002602001015160200151610b11565b5090506000610a9f600a8361502b565b90508015801590610aaf57508381105b15610ab8578093505b50508080610ac590615101565b915050610a5f565b509392505050565b600080516020615183833981519152610aee81336138f0565b5060fe80546001600160a01b0319166001600160a01b0392909216919091179055565b604051630f3ffc7b60e11b815230600482015260009081906001600160a01b03841690631e7ff8f690602401604080518083038186803b158015610b5457600080fd5b505afa158015610b68573d6000803e3d6000fd5b505050506040513d601f19601f82011682018060405250810190610b8c9190614ddd565b91509150915091565b6000610ba2848484613954565b6001600160a01b038416600090815260346020908152604080832033845290915290205482811015610c2c5760405162461bcd60e51b815260206004820152602860248201527f45524332303a207472616e7366657220616d6f756e74206578636565647320616044820152676c6c6f77616e636560c01b60648201526084015b60405180910390fd5b610c3985338584036137cc565b60019150505b9392505050565b600082815260976020526040902060010154610c6281336138f0565b610c6c8383613b22565b505050565b60c95460ff1615610c945760405162461bcd60e51b8152600401610c2390614f1c565b600081815261010960205260409081902060fe5491516331a9108f60e11b815260048101849052909130916001600160a01b0390911690636352211e9060240160206040518083038186803b158015610cec57600080fd5b505afa158015610d00573d6000803e3d6000fd5b505050506040513d601f19601f82011682018060405250810190610d249190614a2b565b6001600160a01b031614610d715760405162461bcd60e51b8152602060048201526014602482015273139bdd081bdddb995c881bd9881d1a194813919560621b6044820152606401610c23565b60fe54604051630852cd8d60e31b8152600481018490526001600160a01b03909116906342966c6890602401600060405180830381600087803b158015610db757600080fd5b505af1158015610dcb573d6000803e3d6000fd5b50505050806002015460fd60009054906101000a90046001600160a01b03166001600160a01b031663900cf0cf6040518163ffffffff1660e01b815260040160206040518083038186803b158015610e2257600080fd5b505afa158015610e36573d6000803e3d6000fd5b505050506040513d601f19601f82011682018060405250810190610e5a9190614dc4565b1015610ea05760405162461bcd60e51b8152602060048201526015602482015274139bdd0818589b19481d1bc818db185a5b481e595d605a1b6044820152606401610c23565b610102546040516370a0823160e01b81523060048201526000916001600160a01b0316906370a082319060240160206040518083038186803b158015610ee557600080fd5b505afa158015610ef9573d6000803e3d6000fd5b505050506040513d601f19601f82011682018060405250810190610f1d9190614dc4565b60038301546001840154919250610f3f916001600160a01b0390911690613ba8565b610102546040516370a0823160e01b815230600482015260009183916001600160a01b03909116906370a082319060240160206040518083038186803b158015610f8857600080fd5b505afa158015610f9c573d6000803e3d6000fd5b505050506040513d601f19601f82011682018060405250810190610fc09190614dc4565b610fca919061506c565b9050806101046000828254610fdf9190614fee565b909155505061010a546001600160a01b0316634c09e6e8610fff60355490565b61100761356f565b6040805160208101939093528201526060016040516020818303038152906040526040518263ffffffff1660e01b81526004016110449190614f09565b600060405180830381600087803b15801561105e57600080fd5b505af1158015611072573d6000803e3d6000fd5b505060fb54600386015460405163013b4d2b60e31b81526001600160a01b039182166004820152911692506309da69589150602401600060405180830381600087803b1580156110c157600080fd5b505af11580156110d5573d6000803e3d6000fd5b505050508084306001600160a01b03167faca94a3466fab333b79851ab29b0715612740e4ae0d891ef8e9bd2a1bf5e24dd600060405161111791815260200190565b60405180910390a450505050565b6001600160a01b03811633146111955760405162461bcd60e51b815260206004820152602f60248201527f416363657373436f6e74726f6c3a2063616e206f6e6c792072656e6f756e636560448201526e103937b632b9903337b91039b2b63360891b6064820152608401610c23565b61119f8282613c06565b5050565b3360008181526034602090815260408083206001600160a01b038716845290915281205490916109c69185906111da908690614fee565b6137cc565b6000805160206151838339815191526111f881336138f0565b5061010655565b60008051602061518383398151915261121881336138f0565b5060fb80546001600160a01b0319166001600160a01b0392909216919091179055565b60c95460ff161561125e5760405162461bcd60e51b8152600401610c2390614f1c565b60fe5460405163430c208160e01b8152336004820152602481018390526001600160a01b039091169063430c20819060440160206040518083038186803b1580156112a857600080fd5b505afa1580156112bc573d6000803e3d6000fd5b505050506040513d601f19601f820116820180604052508101906112e09190614c79565b6113185760405162461bcd60e51b81526020600482015260096024820152682737ba1037bbb732b960b91b6044820152606401610c23565b60008181526101096020908152604091829020600281015460fd54845163900cf0cf60e01b81529451929491936001600160a01b039091169263900cf0cf926004808201939291829003018186803b15801561137357600080fd5b505afa158015611387573d6000803e3d6000fd5b505050506040513d601f19601f820116820180604052508101906113ab9190614dc4565b10156113f15760405162461bcd60e51b8152602060048201526015602482015274139bdd0818589b19481d1bc818db185a5b481e595d605a1b6044820152606401610c23565b60fe54604051630852cd8d60e31b8152600481018490526001600160a01b03909116906342966c6890602401600060405180830381600087803b15801561143757600080fd5b505af115801561144b573d6000803e3d6000fd5b5050506003820154600091506001600160a01b03161561159257610102546040516370a0823160e01b81523060048201526000916001600160a01b0316906370a082319060240160206040518083038186803b1580156114aa57600080fd5b505afa1580156114be573d6000803e3d6000fd5b505050506040513d601f19601f820116820180604052508101906114e29190614dc4565b60038401546001850154919250611504916001600160a01b0390911690613ba8565b610102546040516370a0823160e01b815230600482015282916001600160a01b0316906370a082319060240160206040518083038186803b15801561154857600080fd5b505afa15801561155c573d6000803e3d6000fd5b505050506040513d601f19601f820116820180604052508101906115809190614dc4565b61158a919061506c565b9150506115cc565b816000015490508061010760008282546115ac919061506c565b925050819055508061010460008282546115c6919061506c565b90915550505b610102546115e4906001600160a01b03163383613c6d565b8083336001600160a01b03167faca94a3466fab333b79851ab29b0715612740e4ae0d891ef8e9bd2a1bf5e24dd600060405161162291815260200190565b60405180910390a4505050565b60ff805461163c906150c6565b80601f0160208091040260200160405190810160405280929190818152602001828054611668906150c6565b80156116b55780601f1061168a576101008083540402835291602001916116b5565b820191906000526020600020905b81548152906001019060200180831161169857829003601f168201915b505050505081565b604051630676e55560e41b81523060048201526000906001600160a01b0383169063676e55509060240160206040518083038186803b1580156116ff57600080fd5b505afa158015611713573d6000803e3d6000fd5b505050506040513d601f19601f820116820180604052508101906109219190614dc4565b60c95460ff161561175a5760405162461bcd60e51b8152600401610c2390614f1c565b60fb546040516343781ec560e11b8152600160048201526000916001600160a01b0316906386f03d8a9060240160006040518083038186803b15801561179f57600080fd5b505afa1580156117b3573d6000803e3d6000fd5b505050506040513d6000823e601f3d908101601f191682016040526117db9190810190614b70565b805190915060005b818110156119735760008382815181106117ff576117ff615132565b6020908102919091018101510151604051630676e55560e41b81523060048201529091506000906001600160a01b0383169063676e55509060240160206040518083038186803b15801561185257600080fd5b505afa158015611866573d6000803e3d6000fd5b505050506040513d601f19601f8201168201806040525081019061188a9190614dc4565b90506000826001600160a01b0316639b2cb5d86040518163ffffffff1660e01b815260040160206040518083038186803b1580156118c757600080fd5b505afa1580156118db573d6000803e3d6000fd5b505050506040513d601f19601f820116820180604052508101906118ff9190614dc4565b90508082111561195d57826001600160a01b031663c7b8981c6040518163ffffffff1660e01b8152600401600060405180830381600087803b15801561194457600080fd5b505af1158015611958573d6000803e3d6000fd5b505050505b505050808061196b90615101565b9150506117e3565b5061010454610102546040516370a0823160e01b8152306004820152600092600a9290916001600160a01b03909116906370a082319060240160206040518083038186803b1580156119c457600080fd5b505afa1580156119d8573d6000803e3d6000fd5b505050506040513d601f19601f820116820180604052508101906119fc9190614dc4565b611a06919061506c565b611a10919061502b565b9050610106548111611a745760405162461bcd60e51b815260206004820152602760248201527f416d6f756e7420746f2064697374726962757465206c6f776572207468616e206044820152666d696e696d756d60c81b6064820152608401610c23565b610102546040516370a0823160e01b81523060048201526000916001600160a01b0316906370a082319060240160206040518083038186803b158015611ab957600080fd5b505afa158015611acd573d6000803e3d6000fd5b505050506040513d601f19601f82011682018060405250810190611af19190614dc4565b60fc54909150600090606490611b0a9060ff168561504d565b611b14919061502b565b60fc54909150600090606490611b339062010000900460ff168661504d565b611b3d919061502b565b60fc54909150600090606490611b5b90610100900460ff168761504d565b611b65919061502b565b6101005461010254919250611b87916001600160a01b03908116911685613c6d565b6101015461010254611ba6916001600160a01b03918216911684613c6d565b60008667ffffffffffffffff811115611bc157611bc1615148565b604051908082528060200260200182016040528015611bea578160200160208202803683370190505b5090506000805b88811015611c5c5760008a8281518110611c0d57611c0d615132565b60200260200101516060015160ff16905080848381518110611c3157611c31615132565b6020908102919091010152611c468184614fee565b9250508080611c5490615101565b915050611bf1565b5060005b88811015611cdf57611ccd8a8281518110611c7d57611c7d615132565b60200260200101516080015183858481518110611c9c57611c9c615132565b602002602001015187611caf919061504d565b611cb9919061502b565b610102546001600160a01b03169190613c6d565b80611cd781615101565b915050611c60565b50610102546040516370a0823160e01b81523060048201526000916001600160a01b0316906370a082319060240160206040518083038186803b158015611d2557600080fd5b505afa158015611d39573d6000803e3d6000fd5b505050506040513d601f19601f82011682018060405250810190611d5d9190614dc4565b90506000611d6b828961506c565b61010483905560405190915081907f4e3c6a1e602996ae70905ac6165ed2434753246e3bfa52b6ca6852b40e2d440890600090a25050505050505050505050565b600080516020615183833981519152611dc581336138f0565b5061010a80546001600160a01b0319166001600160a01b0392909216919091179055565b60008181526101096020908152604080832081516080810183528154815260018201548185018190526002830154828501526003909201546001600160a01b0316606082018190528351632e2fbed760e11b8152935191949093849287928492635c5f7dae9260048083019392829003018186803b158015611e6a57600080fd5b505afa158015611e7e573d6000803e3d6000fd5b505050506040513d601f19601f82011682018060405250810190611ea29190614dc4565b9050600060088210611f2457826001600160a01b031663abe756fc6040518163ffffffff1660e01b815260040160206040518083038186803b158015611ee757600080fd5b505afa158015611efb573d6000803e3d6000fd5b505050506040513d601f19601f82011682018060405250810190611f1f9190614dc4565b611f95565b826001600160a01b0316633a01b9646040518163ffffffff1660e01b815260040160206040518083038186803b158015611f5d57600080fd5b505afa158015611f71573d6000803e3d6000fd5b505050506040513d601f19601f82011682018060405250810190611f959190614dc4565b90506000836001600160a01b031663bfb18f296040518163ffffffff1660e01b815260040160206040518083038186803b158015611fd257600080fd5b505afa158015611fe6573d6000803e3d6000fd5b505050506040513d601f19601f8201168201806040525081019061200a9190614dc4565b60405163795be58760e01b8152306004820152602481018790529091506000906001600160a01b0386169063795be58790604401604080518083038186803b15801561205557600080fd5b505afa158015612069573d6000803e3d6000fd5b505050506040513d601f19601f8201168201806040525081019061208d9190614d75565b8051909150839061209e908461504d565b6120a8919061502b565b9a9950505050505050505050565b60c95460ff16156120d95760405162461bcd60e51b8152600401610c2390614f1c565b6000811161211a5760405162461bcd60e51b815260206004820152600e60248201526d125b9d985b1a5908185b5bdd5b9d60921b6044820152606401610c23565b60fb546040516343781ec560e11b8152600060048201819052916001600160a01b0316906386f03d8a9060240160006040518083038186803b15801561215f57600080fd5b505afa158015612173573d6000803e3d6000fd5b505050506040513d6000823e601f3d908101601f1916820160405261219b9190810190614b70565b805190915060008080806121ae87613523565b919450925090508260006121c0612923565b905060006121cc6109cf565b905060008215612258576121e0898361504d565b6121ea9085614fee565b610104546121f89085614fee565b101561223d5760405162461bcd60e51b8152602060048201526014602482015273546f6f206d75636820746f20776974686472617760601b6044820152606401610c23565b612247898361504d565b612251908461506c565b90506122a2565b836101045410156122a25760405162461bcd60e51b8152602060048201526014602482015273546f6f206d75636820746f20776974686472617760601b6044820152606401610c23565b831561280c5760fe546040516335313c2160e11b81523360048201526001600160a01b0390911690636a62784290602401602060405180830381600087803b1580156122ed57600080fd5b505af1158015612301573d6000803e3d6000fd5b505050506040513d601f19601f820116820180604052508101906123259190614dc4565b975080156126665761233860018a61506c565b610103541115612349576000610103555b60008a610103548151811061236057612360615132565b6020908102919091018101510151604051630f3ffc7b60e11b81523060048201529091506000906001600160a01b03831690631e7ff8f690602401604080518083038186803b1580156123b257600080fd5b505afa1580156123c6573d6000803e3d6000fd5b505050506040513d601f19601f820116820180604052508101906123ea9190614ddd565b50905083811161241157610103805490600061240583615101565b919050555050506122a2565b600061241d858361506c565b905060008782111561242f5787612431565b815b90506124408482600019613cd0565b60408051608081018252600081529051630c11b08160e21b815230600482015260208201906001600160a01b03871690633046c2049060240160206040518083038186803b15801561249157600080fd5b505afa1580156124a5573d6000803e3d6000fd5b505050506040513d601f19601f820116820180604052508101906124c99190614dc4565b815260fd546040805163a7ab696160e01b815290516020938401936001600160a01b039093169263a7ab69619260048082019391829003018186803b15801561251157600080fd5b505afa158015612525573d6000803e3d6000fd5b505050506040513d601f19601f820116820180604052508101906125499190614dc4565b60fd60009054906101000a90046001600160a01b03166001600160a01b031663900cf0cf6040518163ffffffff1660e01b815260040160206040518083038186803b15801561259757600080fd5b505afa1580156125ab573d6000803e3d6000fd5b505050506040513d601f19601f820116820180604052508101906125cf9190614dc4565b6125d99190614fee565b81526001600160a01b0386811660209283015260008f81526101098352604090819020845181559284015160018401558301516002830155606090920151600390910180546001600160a01b03191691909216179055612639818661506c565b9450612645818961506c565b6101038054919950600061265883615101565b9190505550505050506122a2565b60405180608001604052808581526020016000815260200160fd60009054906101000a90046001600160a01b03166001600160a01b031663a7ab69616040518163ffffffff1660e01b815260040160206040518083038186803b1580156126cc57600080fd5b505afa1580156126e0573d6000803e3d6000fd5b505050506040513d601f19601f820116820180604052508101906127049190614dc4565b60fd60009054906101000a90046001600160a01b03166001600160a01b031663900cf0cf6040518163ffffffff1660e01b815260040160206040518083038186803b15801561275257600080fd5b505afa158015612766573d6000803e3d6000fd5b505050506040513d601f19601f8201168201806040525081019061278a9190614dc4565b6127949190614fee565b8152600060209182018190528a815261010982526040808220845181559284015160018401558301516002830155606090920151600390910180546001600160a01b0319166001600160a01b0390921691909117905561010780548692906127fd908490614fee565b90915550600094506122a29050565b612816338c613d2d565b61010a546001600160a01b0316634c09e6e86128328d8961506c565b61283c8a8961506c565b6040805160208101939093528201526060016040516020818303038152906040526040518263ffffffff1660e01b81526004016128799190614f09565b600060405180830381600087803b15801561289357600080fd5b505af11580156128a7573d6000803e3d6000fd5b50506040518d92503391507f8a8169c8a646f81d6d6ad8ed0cf560361c75cb37a74656f2487d0fa9bfcb084490600090a35050505050505050505050565b6000805160206151838339815191526128fe81336138f0565b5061010555565b600061291181336138f0565b61291d60ff8484614901565b50505050565b60fb546040516343781ec560e11b815260006004820181905291829182916001600160a01b0316906386f03d8a9060240160006040518083038186803b15801561296c57600080fd5b505afa158015612980573d6000803e3d6000fd5b505050506040513d6000823e601f3d908101601f191682016040526129a89190810190614b70565b805190915060005b818110156129f25760006129cf848381518110610a7e57610a7e615132565b5090506129dc8186614fee565b94505080806129ea90615101565b9150506129b0565b50919392505050565b600080600080612a0a60355490565b90508015612a185780612a1b565b60015b90506000612a2761356f565b90508015612a355780612a38565b60015b9050600081612a47848961504d565b612a51919061502b565b979296509094509092505050565b60009182526097602090815260408084206001600160a01b0393909316845291905290205460ff1690565b606060378054610936906150c6565b600080516020615183833981519152612ab281336138f0565b5061010080546001600160a01b0319166001600160a01b0392909216919091179055565b3360009081526034602090815260408083206001600160a01b038616845290915281205482811015612b585760405162461bcd60e51b815260206004820152602560248201527f45524332303a2064656372656173656420616c6c6f77616e63652062656c6f77604482015264207a65726f60d81b6064820152608401610c23565b612b6533858584036137cc565b5060019392505050565b60006109c6338484613954565b600080516020615183833981519152612b9581336138f0565b5061010180546001600160a01b0319166001600160a01b0392909216919091179055565b6000612bc581336138f0565b60c95460ff16612bda57612bd7613e7b565b50565b612bd7613ef0565b60fb546001600160a01b03163314612c325760405162461bcd60e51b81526020600482015260136024820152722737ba1030903737b2329037b832b930ba37b960691b6044820152606401610c23565b60fe546040516335313c2160e11b81523060048201526000916001600160a01b031690636a62784290602401602060405180830381600087803b158015612c7857600080fd5b505af1158015612c8c573d6000803e3d6000fd5b505050506040513d601f19601f82011682018060405250810190612cb09190614dc4565b90506000612cbd83610b11565b50905080612cca57505050565b612cd78382600019613cd0565b60408051608081018252600081529051630c11b08160e21b815230600482015260208201906001600160a01b03861690633046c2049060240160206040518083038186803b158015612d2857600080fd5b505afa158015612d3c573d6000803e3d6000fd5b505050506040513d601f19601f82011682018060405250810190612d609190614dc4565b815260fd546040805163a7ab696160e01b815290516020938401936001600160a01b039093169263a7ab69619260048082019391829003018186803b158015612da857600080fd5b505afa158015612dbc573d6000803e3d6000fd5b505050506040513d601f19601f82011682018060405250810190612de09190614dc4565b60fd60009054906101000a90046001600160a01b03166001600160a01b031663900cf0cf6040518163ffffffff1660e01b815260040160206040518083038186803b158015612e2e57600080fd5b505afa158015612e42573d6000803e3d6000fd5b505050506040513d601f19601f82011682018060405250810190612e669190614dc4565b612e709190614fee565b81526001600160a01b0380861660209283015260008581526101098352604090819020845181559284015160018401558301516002830155606090920151600390910180549183166001600160a01b031990921691909117905561010a5416634c09e6e8612edd60355490565b612ee561356f565b6040805160208101939093528201526060016040516020818303038152906040526040518263ffffffff1660e01b8152600401612f229190614f09565b600060405180830381600087803b158015612f3c57600080fd5b505af1158015612f50573d6000803e3d6000fd5b50506040518392506001600160a01b03861691507f65fcdf1cdc99352d178d6d953d52e01307cde7a592027b09c9e1d9ac8eb09ab790600090a3505050565b60c95460ff1615612fb25760405162461bcd60e51b8152600401610c2390614f1c565b6101075461010554612fc49190614fee565b61010454116130235760405162461bcd60e51b815260206004820152602560248201527f416d6f756e7420746f2064656c6567617465206c6f776572207468616e206d696044820152646e696d756d60d81b6064820152608401610c23565b60fb546040516343781ec560e11b8152600160048201526000916001600160a01b0316906386f03d8a9060240160006040518083038186803b15801561306857600080fd5b505afa15801561307c573d6000803e3d6000fd5b505050506040513d6000823e601f3d908101601f191682016040526130a49190810190614b70565b8051909150806131025760405162461bcd60e51b815260206004820152602360248201527f4e6f206f70657261746f72207368617265732c2063616e6e6f742064656c656760448201526261746560e81b6064820152608401610c23565b60006101075461010454613116919061506c565b905060008060005b848110156131635785818151811061313857613138615132565b6020026020010151604001518361314f9190614fee565b92508061315b81615101565b91505061311e565b50600082116131ad5760405162461bcd60e51b815260206004820152601660248201527506d617844656c65676174654c696d69747353756d3d360541b6044820152606401610c23565b6000838311156131bd57836131bf565b825b60fd54610102549192506131e1916001600160a01b0390811691166000613f6a565b60fd54610102546131ff916001600160a01b03918216911683613f6a565b6000805b8681101561332657600088828151811061321f5761321f615132565b6020026020010151602001519050806001600160a01b031663df5cf7236040518163ffffffff1660e01b815260040160206040518083038186803b15801561326657600080fd5b505afa15801561327a573d6000803e3d6000fd5b505050506040513d601f19601f8201168201806040525081019061329e9190614c79565b1561331357600086858b85815181106132b9576132b9615132565b6020026020010151604001516132cf919061504d565b6132d9919061502b565b90506133048a84815181106132f0576132f0615132565b60200260200101516020015182600061408e565b5061330f8185614fee565b9350505b508061331e81615101565b915050613203565b50613331818661506c565b925061010754836133429190614fee565b61010455604051839082907f421adba60af7a6b11679e2ac133b1bc91d3de91d56866ec19703d9d60cf950c890600090a350505050505050565b600054610100900460ff1680613395575060005460ff16155b6133b15760405162461bcd60e51b8152600401610c2390614f46565b600054610100900460ff161580156133d3576000805461ffff19166101011790555b6133db61411d565b6133e36141a0565b6134306040518060400160405280600c81526020016b5374616b6564204d4154494360a01b8152506040518060400160405280600781526020016673744d4154494360c81b815250614207565b61343b600033614286565b61345360008051602061518383398151915286614286565b60fb80546001600160a01b03199081166001600160a01b038a81169190911790925560fd8054821686841617905560fe80548216858416179055610100805482168884161790556101028054821689841617905561010180549091169186169190911790556040805160608101825260198082526032602083015291015260fc805462ffffff19166219321917905580156134f4576000805461ff00191690555b50505050505050565b60008281526097602052604090206001015461351981336138f0565b610c6c8383613c06565b60008060008061353260355490565b905080156135405780613543565b60015b9050600061354f61356f565b9050801561355d5780613560565b60015b9050600082612a47838961504d565b60008061357a612923565b905061010754610104548261358f9190614fee565b613599919061506c565b91505090565b60006135ad60c95460ff1690565b156135ca5760405162461bcd60e51b8152600401610c2390614f1c565b6000821161360b5760405162461bcd60e51b815260206004820152600e60248201526d125b9d985b1a5908185b5bdd5b9d60921b6044820152606401610c23565b61010254613624906001600160a01b0316333085614290565b6000806000613632856129fb565b92509250925061364233846142c8565b8461010460008282546136559190614fee565b909155505061010a546001600160a01b0316634c09e6e86136768585614fee565b6136808885614fee565b6040805160208101939093528201526060016040516020818303038152906040526040518263ffffffff1660e01b81526004016136bd9190614f09565b600060405180830381600087803b1580156136d757600080fd5b505af11580156136eb573d6000803e3d6000fd5b50506040518792503391507f8cab5a17f7d817d11abfe3fb3f8dd67646d2643cb4222e5354bde1f65ef6c44c90600090a350909392505050565b60008051602061518383398151915261373e81336138f0565b816137498486615006565b6137539190615006565b60ff166064146137955760405162461bcd60e51b815260206004820152600d60248201526c073756d2866656529213d31303609c1b6044820152606401610c23565b5060fc805460ff94851661ffff1990911617610100938516939093029290921762ff00001916620100009190931602919091179055565b6001600160a01b03831661382e5760405162461bcd60e51b8152602060048201526024808201527f45524332303a20617070726f76652066726f6d20746865207a65726f206164646044820152637265737360e01b6064820152608401610c23565b6001600160a01b03821661388f5760405162461bcd60e51b815260206004820152602260248201527f45524332303a20617070726f766520746f20746865207a65726f206164647265604482015261737360f01b6064820152608401610c23565b6001600160a01b0383811660008181526034602090815260408083209487168084529482529182902085905590518481527f8c5be1e5ebec7d5bd14f71427d1e84f3dd0314c0f7b2291e5b200ac8c7c3b925910160405180910390a3505050565b6138fa8282612a5f565b61119f57613912816001600160a01b031660146143a7565b61391d8360206143a7565b60405160200161392e929190614e94565b60408051601f198184030181529082905262461bcd60e51b8252610c2391600401614f09565b6001600160a01b0383166139b85760405162461bcd60e51b815260206004820152602560248201527f45524332303a207472616e736665722066726f6d20746865207a65726f206164604482015264647265737360d81b6064820152608401610c23565b6001600160a01b038216613a1a5760405162461bcd60e51b815260206004820152602360248201527f45524332303a207472616e7366657220746f20746865207a65726f206164647260448201526265737360e81b6064820152608401610c23565b6001600160a01b03831660009081526033602052604090205481811015613a925760405162461bcd60e51b815260206004820152602660248201527f45524332303a207472616e7366657220616d6f756e7420657863656564732062604482015265616c616e636560d01b6064820152608401610c23565b6001600160a01b03808516600090815260336020526040808220858503905591851681529081208054849290613ac9908490614fee565b92505081905550826001600160a01b0316846001600160a01b03167fddf252ad1be2c89b69c2b068fc378daa952ba7f163c4a11628f55a4df523b3ef84604051613b1591815260200190565b60405180910390a361291d565b613b2c8282612a5f565b61119f5760008281526097602090815260408083206001600160a01b03851684529091529020805460ff19166001179055613b643390565b6001600160a01b0316816001600160a01b0316837f2f8788117e7eff1d82e926ec794901d17c78024a50270940304540a733656f0d60405160405180910390a45050565b6040516374bfeee160e11b8152600481018290526001600160a01b0383169063e97fddc290602401600060405180830381600087803b158015613bea57600080fd5b505af1158015613bfe573d6000803e3d6000fd5b505050505050565b613c108282612a5f565b1561119f5760008281526097602090815260408083206001600160a01b0385168085529252808320805460ff1916905551339285917ff6391f5c32d9c69d2a47ea670b442974b53935d1edc7fd64eb21e047a839171b9190a45050565b6040516001600160a01b038316602482015260448101829052610c6c90849063a9059cbb60e01b906064015b60408051601f198184030181529190526020810180516001600160e01b03166001600160e01b031990931692909217909152614543565b60405163c83ec04d60e01b815260048101839052602481018290526001600160a01b0384169063c83ec04d90604401600060405180830381600087803b158015613d1957600080fd5b505af11580156134f4573d6000803e3d6000fd5b6001600160a01b038216613d8d5760405162461bcd60e51b815260206004820152602160248201527f45524332303a206275726e2066726f6d20746865207a65726f206164647265736044820152607360f81b6064820152608401610c23565b6001600160a01b03821660009081526033602052604090205481811015613e015760405162461bcd60e51b815260206004820152602260248201527f45524332303a206275726e20616d6f756e7420657863656564732062616c616e604482015261636560f01b6064820152608401610c23565b6001600160a01b0383166000908152603360205260408120838303905560358054849290613e3090849061506c565b90915550506040518281526000906001600160a01b038516907fddf252ad1be2c89b69c2b068fc378daa952ba7f163c4a11628f55a4df523b3ef9060200160405180910390a3505050565b60c95460ff1615613e9e5760405162461bcd60e51b8152600401610c2390614f1c565b60c9805460ff191660011790557f62e78cea01bee320cd4e420270b5ea74000d11b0c9f74754ebdbfc544b05a258613ed33390565b6040516001600160a01b03909116815260200160405180910390a1565b60c95460ff16613f395760405162461bcd60e51b815260206004820152601460248201527314185d5cd8589b194e881b9bdd081c185d5cd95960621b6044820152606401610c23565b60c9805460ff191690557f5db9ee0a495bf2e6ff9c91a7834c1ba4fdd244a5e8aa4e537bd38aeae4b073aa33613ed3565b801580613ff35750604051636eb1769f60e11b81523060048201526001600160a01b03838116602483015284169063dd62ed3e9060440160206040518083038186803b158015613fb957600080fd5b505afa158015613fcd573d6000803e3d6000fd5b505050506040513d601f19601f82011682018060405250810190613ff19190614dc4565b155b61405e5760405162461bcd60e51b815260206004820152603660248201527f5361666545524332303a20617070726f76652066726f6d206e6f6e2d7a65726f60448201527520746f206e6f6e2d7a65726f20616c6c6f77616e636560501b6064820152608401610c23565b6040516001600160a01b038316602482015260448101829052610c6c90849063095ea7b360e01b90606401613c99565b604051636ab1507160e01b8152600481018390526024810182905260009081906001600160a01b03861690636ab1507190604401602060405180830381600087803b1580156140dc57600080fd5b505af11580156140f0573d6000803e3d6000fd5b505050506040513d601f19601f820116820180604052508101906141149190614dc4565b95945050505050565b600054610100900460ff1680614136575060005460ff16155b6141525760405162461bcd60e51b8152600401610c2390614f46565b600054610100900460ff16158015614174576000805461ffff19166101011790555b61417c614615565b614184614615565b61418c614615565b8015612bd7576000805461ff001916905550565b600054610100900460ff16806141b9575060005460ff16155b6141d55760405162461bcd60e51b8152600401610c2390614f46565b600054610100900460ff161580156141f7576000805461ffff19166101011790555b6141ff614615565b61418c61467f565b600054610100900460ff1680614220575060005460ff16155b61423c5760405162461bcd60e51b8152600401610c2390614f46565b600054610100900460ff1615801561425e576000805461ffff19166101011790555b614266614615565b61427083836146f4565b8015610c6c576000805461ff0019169055505050565b61119f8282613b22565b6040516001600160a01b038085166024830152831660448201526064810182905261291d9085906323b872dd60e01b90608401613c99565b6001600160a01b03821661431e5760405162461bcd60e51b815260206004820152601f60248201527f45524332303a206d696e7420746f20746865207a65726f2061646472657373006044820152606401610c23565b80603560008282546143309190614fee565b90915550506001600160a01b0382166000908152603360205260408120805483929061435d908490614fee565b90915550506040518181526001600160a01b038316906000907fddf252ad1be2c89b69c2b068fc378daa952ba7f163c4a11628f55a4df523b3ef9060200160405180910390a35050565b606060006143b683600261504d565b6143c1906002614fee565b67ffffffffffffffff8111156143d9576143d9615148565b6040519080825280601f01601f191660200182016040528015614403576020820181803683370190505b509050600360fc1b8160008151811061441e5761441e615132565b60200101906001600160f81b031916908160001a905350600f60fb1b8160018151811061444d5761444d615132565b60200101906001600160f81b031916908160001a905350600061447184600261504d565b61447c906001614fee565b90505b60018111156144f4576f181899199a1a9b1b9c1cb0b131b232b360811b85600f16601081106144b0576144b0615132565b1a60f81b8282815181106144c6576144c6615132565b60200101906001600160f81b031916908160001a90535060049490941c936144ed816150af565b905061447f565b508315610c3f5760405162461bcd60e51b815260206004820181905260248201527f537472696e67733a20686578206c656e67746820696e73756666696369656e746044820152606401610c23565b6000614598826040518060400160405280602081526020017f5361666545524332303a206c6f772d6c6576656c2063616c6c206661696c6564815250856001600160a01b03166147899092919063ffffffff16565b805190915015610c6c57808060200190518101906145b69190614c79565b610c6c5760405162461bcd60e51b815260206004820152602a60248201527f5361666545524332303a204552433230206f7065726174696f6e20646964206e6044820152691bdd081cdd58d8d9595960b21b6064820152608401610c23565b600054610100900460ff168061462e575060005460ff16155b61464a5760405162461bcd60e51b8152600401610c2390614f46565b600054610100900460ff1615801561418c576000805461ffff19166101011790558015612bd7576000805461ff001916905550565b600054610100900460ff1680614698575060005460ff16155b6146b45760405162461bcd60e51b8152600401610c2390614f46565b600054610100900460ff161580156146d6576000805461ffff19166101011790555b60c9805460ff191690558015612bd7576000805461ff001916905550565b600054610100900460ff168061470d575060005460ff16155b6147295760405162461bcd60e51b8152600401610c2390614f46565b600054610100900460ff1615801561474b576000805461ffff19166101011790555b825161475e906036906020860190614985565b508151614772906037906020850190614985565b508015610c6c576000805461ff0019169055505050565b606061479884846000856147a0565b949350505050565b6060824710156148015760405162461bcd60e51b815260206004820152602660248201527f416464726573733a20696e73756666696369656e742062616c616e636520666f6044820152651c8818d85b1b60d21b6064820152608401610c23565b843b61484f5760405162461bcd60e51b815260206004820152601d60248201527f416464726573733a2063616c6c20746f206e6f6e2d636f6e74726163740000006044820152606401610c23565b600080866001600160a01b0316858760405161486b9190614e78565b60006040518083038185875af1925050503d80600081146148a8576040519150601f19603f3d011682016040523d82523d6000602084013e6148ad565b606091505b50915091506148bd8282866148c8565b979650505050505050565b606083156148d7575081610c3f565b8251156148e75782518084602001fd5b8160405162461bcd60e51b8152600401610c239190614f09565b82805461490d906150c6565b90600052602060002090601f01602090048101928261492f5760008555614975565b82601f106149485782800160ff19823516178555614975565b82800160010185558215614975579182015b8281111561497557823582559160200191906001019061495a565b506149819291506149f9565b5090565b828054614991906150c6565b90600052602060002090601f0160209004810192826149b35760008555614975565b82601f106149cc57805160ff1916838001178555614975565b82800160010185558215614975579182015b828111156149755782518255916020019190600101906149de565b5b8082111561498157600081556001016149fa565b600060208284031215614a2057600080fd5b8135610c3f8161515e565b600060208284031215614a3d57600080fd5b8151610c3f8161515e565b60008060408385031215614a5b57600080fd5b8235614a668161515e565b91506020830135614a768161515e565b809150509250929050565b60008060008060008060c08789031215614a9a57600080fd5b8635614aa58161515e565b95506020870135614ab58161515e565b94506040870135614ac58161515e565b93506060870135614ad58161515e565b92506080870135614ae58161515e565b915060a0870135614af58161515e565b809150509295509295509295565b600080600060608486031215614b1857600080fd5b8335614b238161515e565b92506020840135614b338161515e565b929592945050506040919091013590565b60008060408385031215614b5757600080fd5b8235614b628161515e565b946020939093013593505050565b60006020808385031215614b8357600080fd5b825167ffffffffffffffff80821115614b9b57600080fd5b818501915085601f830112614baf57600080fd5b815181811115614bc157614bc1615148565b614bcf848260051b01614fbd565b818152848101925083850160a0808402860187018a1015614bef57600080fd5b60009550855b84811015614c6a5781838c031215614c0b578687fd5b614c13614f94565b8351815288840151614c248161515e565b818a015260408481015190820152606080850151614c4181615173565b90820152608084810151614c548161515e565b9082015286529487019491810191600101614bf5565b50919998505050505050505050565b600060208284031215614c8b57600080fd5b81518015158114610c3f57600080fd5b600060208284031215614cad57600080fd5b5035919050565b60008060408385031215614cc757600080fd5b823591506020830135614a768161515e565b600060208284031215614ceb57600080fd5b81356001600160e01b031981168114610c3f57600080fd5b60008060208385031215614d1657600080fd5b823567ffffffffffffffff80821115614d2e57600080fd5b818501915085601f830112614d4257600080fd5b813581811115614d5157600080fd5b866020828501011115614d6357600080fd5b60209290920196919550909350505050565b600060408284031215614d8757600080fd5b6040516040810181811067ffffffffffffffff82111715614daa57614daa615148565b604052825181526020928301519281019290925250919050565b600060208284031215614dd657600080fd5b5051919050565b60008060408385031215614df057600080fd5b505080516020909101519092909150565b600080600060608486031215614e1657600080fd5b8335614e2181615173565b92506020840135614e3181615173565b91506040840135614e4181615173565b809150509250925092565b60008151808452614e64816020860160208601615083565b601f01601f19169290920160200192915050565b60008251614e8a818460208701615083565b9190910192915050565b7f416363657373436f6e74726f6c3a206163636f756e7420000000000000000000815260008351614ecc816017850160208801615083565b7001034b99036b4b9b9b4b733903937b6329607d1b6017918401918201528351614efd816028840160208801615083565b01602801949350505050565b602081526000610c3f6020830184614e4c565b60208082526010908201526f14185d5cd8589b194e881c185d5cd95960821b604082015260600190565b6020808252602e908201527f496e697469616c697a61626c653a20636f6e747261637420697320616c72656160408201526d191e481a5b9a5d1a585b1a5e995960921b606082015260800190565b60405160a0810167ffffffffffffffff81118282101715614fb757614fb7615148565b60405290565b604051601f8201601f1916810167ffffffffffffffff81118282101715614fe657614fe6615148565b604052919050565b600082198211156150015761500161511c565b500190565b600060ff821660ff84168060ff038211156150235761502361511c565b019392505050565b60008261504857634e487b7160e01b600052601260045260246000fd5b500490565b60008160001904831182151516156150675761506761511c565b500290565b60008282101561507e5761507e61511c565b500390565b60005b8381101561509e578181015183820152602001615086565b8381111561291d5750506000910152565b6000816150be576150be61511c565b506000190190565b600181811c908216806150da57607f821691505b602082108114156150fb57634e487b7160e01b600052602260045260246000fd5b50919050565b60006000198214156151155761511561511c565b5060010190565b634e487b7160e01b600052601160045260246000fd5b634e487b7160e01b600052603260045260246000fd5b634e487b7160e01b600052604160045260246000fd5b6001600160a01b0381168114612bd757600080fd5b60ff81168114612bd757600080fdfed0a4ad96d49edb1c33461cebc6fb2609190f32c904e3c3f5877edb4488dee91ea264697066735822122084655d80d0aee12035bc1e16d885845e6c26fc2d5f2373e49ed1f0aeec89b3a064736f6c63430008070033",
  "linkReferences": {},
  "deployedLinkReferences": {}
}