{
  "_format": "hh-sol-artifact-1",
  "contractName": "StMATIC",
  "sourceName": "contracts/StMATIC.sol",
  "abi": [
    {
      "anonymous": false,
      "inputs": [
        {
          "indexed": true,
          "internalType": "address",
          "name": "owner",
          "type": "address"
        },
        {
          "indexed": true,
          "internalType": "address",
          "name": "spender",
          "type": "address"
        },
        {
          "indexed": false,
          "internalType": "uint256",
          "name": "value",
          "type": "uint256"
        }
      ],
      "name": "Approval",
      "type": "event"
    },
    {
      "anonymous": false,
      "inputs": [
        {
          "indexed": true,
          "internalType": "address",
          "name": "_from",
          "type": "address"
        },
        {
          "indexed": true,
          "internalType": "uint256",
          "name": "_id",
          "type": "uint256"
        },
        {
          "indexed": true,
          "internalType": "uint256",
          "name": "_amountClaimed",
          "type": "uint256"
        },
        {
          "indexed": false,
          "internalType": "uint256",
          "name": "_amountBurned",
          "type": "uint256"
        }
      ],
      "name": "ClaimTokensEvent",
      "type": "event"
    },
    {
      "anonymous": false,
      "inputs": [
        {
          "indexed": true,
          "internalType": "uint256",
          "name": "_amountDelegated",
          "type": "uint256"
        },
        {
          "indexed": true,
          "internalType": "uint256",
          "name": "_remainder",
          "type": "uint256"
        }
      ],
      "name": "DelegateEvent",
      "type": "event"
    },
    {
      "anonymous": false,
      "inputs": [
        {
          "indexed": true,
          "internalType": "uint256",
          "name": "_amount",
          "type": "uint256"
        }
      ],
      "name": "DistributeRewardsEvent",
      "type": "event"
    },
    {
      "anonymous": false,
      "inputs": [
        {
          "indexed": false,
          "internalType": "address",
          "name": "account",
          "type": "address"
        }
      ],
      "name": "Paused",
      "type": "event"
    },
    {
      "anonymous": false,
      "inputs": [
        {
          "indexed": true,
          "internalType": "address",
          "name": "_from",
          "type": "address"
        },
        {
          "indexed": true,
          "internalType": "uint256",
          "name": "_amount",
          "type": "uint256"
        }
      ],
      "name": "RequestWithdrawEvent",
      "type": "event"
    },
    {
      "anonymous": false,
      "inputs": [
        {
          "indexed": true,
          "internalType": "bytes32",
          "name": "role",
          "type": "bytes32"
        },
        {
          "indexed": true,
          "internalType": "bytes32",
          "name": "previousAdminRole",
          "type": "bytes32"
        },
        {
          "indexed": true,
          "internalType": "bytes32",
          "name": "newAdminRole",
          "type": "bytes32"
        }
      ],
      "name": "RoleAdminChanged",
      "type": "event"
    },
    {
      "anonymous": false,
      "inputs": [
        {
          "indexed": true,
          "internalType": "bytes32",
          "name": "role",
          "type": "bytes32"
        },
        {
          "indexed": true,
          "internalType": "address",
          "name": "account",
          "type": "address"
        },
        {
          "indexed": true,
          "internalType": "address",
          "name": "sender",
          "type": "address"
        }
      ],
      "name": "RoleGranted",
      "type": "event"
    },
    {
      "anonymous": false,
      "inputs": [
        {
          "indexed": true,
          "internalType": "bytes32",
          "name": "role",
          "type": "bytes32"
        },
        {
          "indexed": true,
          "internalType": "address",
          "name": "account",
          "type": "address"
        },
        {
          "indexed": true,
          "internalType": "address",
          "name": "sender",
          "type": "address"
        }
      ],
      "name": "RoleRevoked",
      "type": "event"
    },
    {
      "anonymous": false,
      "inputs": [
        {
          "indexed": true,
          "internalType": "address",
          "name": "_from",
          "type": "address"
        },
        {
          "indexed": true,
          "internalType": "uint256",
          "name": "_amount",
          "type": "uint256"
        }
      ],
      "name": "SubmitEvent",
      "type": "event"
    },
    {
      "anonymous": false,
      "inputs": [
        {
          "indexed": true,
          "internalType": "address",
          "name": "from",
          "type": "address"
        },
        {
          "indexed": true,
          "internalType": "address",
          "name": "to",
          "type": "address"
        },
        {
          "indexed": false,
          "internalType": "uint256",
          "name": "value",
          "type": "uint256"
        }
      ],
      "name": "Transfer",
      "type": "event"
    },
    {
      "anonymous": false,
      "inputs": [
        {
          "indexed": false,
          "internalType": "address",
          "name": "account",
          "type": "address"
        }
      ],
      "name": "Unpaused",
      "type": "event"
    },
    {
      "anonymous": false,
      "inputs": [
        {
          "indexed": true,
          "internalType": "address",
          "name": "_from",
          "type": "address"
        },
        {
          "indexed": true,
          "internalType": "uint256",
          "name": "_amount",
          "type": "uint256"
        }
      ],
      "name": "WithdrawTotalDelegatedEvent",
      "type": "event"
    },
    {
      "inputs": [],
      "name": "DAO",
      "outputs": [
        {
          "internalType": "bytes32",
          "name": "",
          "type": "bytes32"
        }
      ],
      "stateMutability": "view",
      "type": "function"
    },
    {
      "inputs": [],
      "name": "DEFAULT_ADMIN_ROLE",
      "outputs": [
        {
          "internalType": "bytes32",
          "name": "",
          "type": "bytes32"
        }
      ],
      "stateMutability": "view",
      "type": "function"
    },
    {
      "inputs": [
        {
          "internalType": "address",
          "name": "owner",
          "type": "address"
        },
        {
          "internalType": "address",
          "name": "spender",
          "type": "address"
        }
      ],
      "name": "allowance",
      "outputs": [
        {
          "internalType": "uint256",
          "name": "",
          "type": "uint256"
        }
      ],
      "stateMutability": "view",
      "type": "function"
    },
    {
      "inputs": [
        {
          "internalType": "address",
          "name": "spender",
          "type": "address"
        },
        {
          "internalType": "uint256",
          "name": "amount",
          "type": "uint256"
        }
      ],
      "name": "approve",
      "outputs": [
        {
          "internalType": "bool",
          "name": "",
          "type": "bool"
        }
      ],
      "stateMutability": "nonpayable",
      "type": "function"
    },
    {
      "inputs": [
        {
          "internalType": "address",
          "name": "account",
          "type": "address"
        }
      ],
      "name": "balanceOf",
      "outputs": [
        {
          "internalType": "uint256",
          "name": "",
          "type": "uint256"
        }
      ],
      "stateMutability": "view",
      "type": "function"
    },
    {
      "inputs": [
        {
          "internalType": "uint256",
          "name": "_tokenId",
          "type": "uint256"
        }
      ],
      "name": "claimTokens",
      "outputs": [],
      "stateMutability": "nonpayable",
      "type": "function"
    },
    {
      "inputs": [
        {
          "internalType": "uint256",
          "name": "_tokenId",
          "type": "uint256"
        }
      ],
      "name": "claimTokens2StMatic",
      "outputs": [],
      "stateMutability": "nonpayable",
      "type": "function"
    },
    {
      "inputs": [
        {
          "internalType": "uint256",
          "name": "_balance",
          "type": "uint256"
        }
      ],
      "name": "convertMaticToStMatic",
      "outputs": [
        {
          "internalType": "uint256",
          "name": "",
          "type": "uint256"
        },
        {
          "internalType": "uint256",
          "name": "",
          "type": "uint256"
        },
        {
          "internalType": "uint256",
          "name": "",
          "type": "uint256"
        }
      ],
      "stateMutability": "view",
      "type": "function"
    },
    {
      "inputs": [
        {
          "internalType": "uint256",
          "name": "_balance",
          "type": "uint256"
        }
      ],
      "name": "convertStMaticToMatic",
      "outputs": [
        {
          "internalType": "uint256",
          "name": "",
          "type": "uint256"
        },
        {
          "internalType": "uint256",
          "name": "",
          "type": "uint256"
        },
        {
          "internalType": "uint256",
          "name": "",
          "type": "uint256"
        }
      ],
      "stateMutability": "view",
      "type": "function"
    },
    {
      "inputs": [],
      "name": "dao",
      "outputs": [
        {
          "internalType": "address",
          "name": "",
          "type": "address"
        }
      ],
      "stateMutability": "view",
      "type": "function"
    },
    {
      "inputs": [],
      "name": "decimals",
      "outputs": [
        {
          "internalType": "uint8",
          "name": "",
          "type": "uint8"
        }
      ],
      "stateMutability": "view",
      "type": "function"
    },
    {
      "inputs": [
        {
          "internalType": "address",
          "name": "spender",
          "type": "address"
        },
        {
          "internalType": "uint256",
          "name": "subtractedValue",
          "type": "uint256"
        }
      ],
      "name": "decreaseAllowance",
      "outputs": [
        {
          "internalType": "bool",
          "name": "",
          "type": "bool"
        }
      ],
      "stateMutability": "nonpayable",
      "type": "function"
    },
    {
      "inputs": [],
      "name": "delegate",
      "outputs": [],
      "stateMutability": "nonpayable",
      "type": "function"
    },
    {
      "inputs": [],
      "name": "delegationLowerBound",
      "outputs": [
        {
          "internalType": "uint256",
          "name": "",
          "type": "uint256"
        }
      ],
      "stateMutability": "view",
      "type": "function"
    },
    {
      "inputs": [],
      "name": "distributeRewards",
      "outputs": [],
      "stateMutability": "nonpayable",
      "type": "function"
    },
    {
      "inputs": [],
      "name": "entityFees",
      "outputs": [
        {
          "internalType": "uint8",
          "name": "dao",
          "type": "uint8"
        },
        {
          "internalType": "uint8",
          "name": "operators",
          "type": "uint8"
        },
        {
          "internalType": "uint8",
          "name": "insurance",
          "type": "uint8"
        }
      ],
      "stateMutability": "view",
      "type": "function"
    },
    {
      "inputs": [],
      "name": "flipSubmitHandler",
      "outputs": [],
      "stateMutability": "nonpayable",
      "type": "function"
    },
    {
      "inputs": [],
      "name": "fxStateRootTunnel",
      "outputs": [
        {
          "internalType": "contract IFxStateRootTunnel",
          "name": "",
          "type": "address"
        }
      ],
      "stateMutability": "view",
      "type": "function"
    },
    {
      "inputs": [
        {
          "internalType": "contract IValidatorShare",
          "name": "_validatorShare",
          "type": "address"
        }
      ],
      "name": "getLiquidRewards",
      "outputs": [
        {
          "internalType": "uint256",
          "name": "",
          "type": "uint256"
        }
      ],
      "stateMutability": "view",
      "type": "function"
    },
    {
      "inputs": [
        {
          "internalType": "uint256",
          "name": "_tokenId",
          "type": "uint256"
        }
      ],
      "name": "getMaticFromTokenId",
      "outputs": [
        {
          "internalType": "uint256",
          "name": "",
          "type": "uint256"
        }
      ],
      "stateMutability": "view",
      "type": "function"
    },
    {
      "inputs": [],
      "name": "getMinValidatorBalance",
      "outputs": [
        {
          "internalType": "uint256",
          "name": "",
          "type": "uint256"
        }
      ],
      "stateMutability": "view",
      "type": "function"
    },
    {
      "inputs": [
        {
          "internalType": "bytes32",
          "name": "role",
          "type": "bytes32"
        }
      ],
      "name": "getRoleAdmin",
      "outputs": [
        {
          "internalType": "bytes32",
          "name": "",
          "type": "bytes32"
        }
      ],
      "stateMutability": "view",
      "type": "function"
    },
    {
      "inputs": [],
      "name": "getTotalPooledMatic",
      "outputs": [
        {
          "internalType": "uint256",
          "name": "",
          "type": "uint256"
        }
      ],
      "stateMutability": "view",
      "type": "function"
    },
    {
      "inputs": [
        {
          "internalType": "contract IValidatorShare",
          "name": "_validatorShare",
          "type": "address"
        }
      ],
      "name": "getTotalStake",
      "outputs": [
        {
          "internalType": "uint256",
          "name": "",
          "type": "uint256"
        },
        {
          "internalType": "uint256",
          "name": "",
          "type": "uint256"
        }
      ],
      "stateMutability": "view",
      "type": "function"
    },
    {
      "inputs": [],
      "name": "getTotalStakeAcrossAllValidators",
      "outputs": [
        {
          "internalType": "uint256",
          "name": "",
          "type": "uint256"
        }
      ],
      "stateMutability": "view",
      "type": "function"
    },
    {
      "inputs": [
        {
          "internalType": "bytes32",
          "name": "role",
          "type": "bytes32"
        },
        {
          "internalType": "address",
          "name": "account",
          "type": "address"
        }
      ],
      "name": "grantRole",
      "outputs": [],
      "stateMutability": "nonpayable",
      "type": "function"
    },
    {
      "inputs": [
        {
          "internalType": "bytes32",
          "name": "role",
          "type": "bytes32"
        },
        {
          "internalType": "address",
          "name": "account",
          "type": "address"
        }
      ],
      "name": "hasRole",
      "outputs": [
        {
          "internalType": "bool",
          "name": "",
          "type": "bool"
        }
      ],
      "stateMutability": "view",
      "type": "function"
    },
    {
      "inputs": [
        {
          "internalType": "address",
          "name": "spender",
          "type": "address"
        },
        {
          "internalType": "uint256",
          "name": "addedValue",
          "type": "uint256"
        }
      ],
      "name": "increaseAllowance",
      "outputs": [
        {
          "internalType": "bool",
          "name": "",
          "type": "bool"
        }
      ],
      "stateMutability": "nonpayable",
      "type": "function"
    },
    {
      "inputs": [
        {
          "internalType": "address",
          "name": "_nodeOperatorRegistry",
          "type": "address"
        },
        {
          "internalType": "address",
          "name": "_token",
          "type": "address"
        },
        {
          "internalType": "address",
          "name": "_dao",
          "type": "address"
        },
        {
          "internalType": "address",
          "name": "_insurance",
          "type": "address"
        },
        {
          "internalType": "address",
          "name": "_stakeManager",
          "type": "address"
        },
        {
          "internalType": "address",
          "name": "_poLidoNFT",
          "type": "address"
        },
        {
          "internalType": "address",
          "name": "_fxStateRootTunnel",
          "type": "address"
        },
        {
          "internalType": "uint256",
          "name": "_submitThreshold",
          "type": "uint256"
        }
      ],
      "name": "initialize",
      "outputs": [],
      "stateMutability": "nonpayable",
      "type": "function"
    },
    {
      "inputs": [],
      "name": "insurance",
      "outputs": [
        {
          "internalType": "address",
          "name": "",
          "type": "address"
        }
      ],
      "stateMutability": "view",
      "type": "function"
    },
    {
      "inputs": [],
      "name": "lastWithdrawnValidatorId",
      "outputs": [
        {
          "internalType": "uint256",
          "name": "",
          "type": "uint256"
        }
      ],
      "stateMutability": "view",
      "type": "function"
    },
    {
      "inputs": [],
      "name": "minValidatorBalance",
      "outputs": [
        {
          "internalType": "uint256",
          "name": "",
          "type": "uint256"
        }
      ],
      "stateMutability": "view",
      "type": "function"
    },
    {
      "inputs": [],
      "name": "name",
      "outputs": [
        {
          "internalType": "string",
          "name": "",
          "type": "string"
        }
      ],
      "stateMutability": "view",
      "type": "function"
    },
    {
      "inputs": [],
      "name": "nodeOperator",
      "outputs": [
        {
          "internalType": "contract INodeOperatorRegistry",
          "name": "",
          "type": "address"
        }
      ],
      "stateMutability": "view",
      "type": "function"
    },
    {
      "inputs": [],
      "name": "paused",
      "outputs": [
        {
          "internalType": "bool",
          "name": "",
          "type": "bool"
        }
      ],
      "stateMutability": "view",
      "type": "function"
    },
    {
      "inputs": [],
      "name": "poLidoNFT",
      "outputs": [
        {
          "internalType": "contract IPoLidoNFT",
          "name": "",
          "type": "address"
        }
      ],
      "stateMutability": "view",
      "type": "function"
    },
    {
      "inputs": [
        {
          "internalType": "bytes32",
          "name": "role",
          "type": "bytes32"
        },
        {
          "internalType": "address",
          "name": "account",
          "type": "address"
        }
      ],
      "name": "renounceRole",
      "outputs": [],
      "stateMutability": "nonpayable",
      "type": "function"
    },
    {
      "inputs": [
        {
          "internalType": "uint256",
          "name": "_amount",
          "type": "uint256"
        }
      ],
      "name": "requestWithdraw",
      "outputs": [],
      "stateMutability": "nonpayable",
      "type": "function"
    },
    {
      "inputs": [],
      "name": "reservedFunds",
      "outputs": [
        {
          "internalType": "uint256",
          "name": "",
          "type": "uint256"
        }
      ],
      "stateMutability": "view",
      "type": "function"
    },
    {
      "inputs": [
        {
          "internalType": "bytes32",
          "name": "role",
          "type": "bytes32"
        },
        {
          "internalType": "address",
          "name": "account",
          "type": "address"
        }
      ],
      "name": "revokeRole",
      "outputs": [],
      "stateMutability": "nonpayable",
      "type": "function"
    },
    {
      "inputs": [],
      "name": "rewardDistributionLowerBound",
      "outputs": [
        {
          "internalType": "uint256",
          "name": "",
          "type": "uint256"
        }
      ],
      "stateMutability": "view",
      "type": "function"
    },
    {
      "inputs": [
        {
          "internalType": "address",
          "name": "_address",
          "type": "address"
        }
      ],
      "name": "setDaoAddress",
      "outputs": [],
      "stateMutability": "nonpayable",
      "type": "function"
    },
    {
      "inputs": [
        {
          "internalType": "uint256",
          "name": "_delegationLowerBound",
          "type": "uint256"
        }
      ],
      "name": "setDelegationLowerBound",
      "outputs": [],
      "stateMutability": "nonpayable",
      "type": "function"
    },
    {
      "inputs": [
        {
          "internalType": "uint8",
          "name": "_daoFee",
          "type": "uint8"
        },
        {
          "internalType": "uint8",
          "name": "_operatorsFee",
          "type": "uint8"
        },
        {
          "internalType": "uint8",
          "name": "_insuranceFee",
          "type": "uint8"
        }
      ],
      "name": "setFees",
      "outputs": [],
      "stateMutability": "nonpayable",
      "type": "function"
    },
    {
      "inputs": [
        {
          "internalType": "address",
          "name": "_fxStateRootTunnel",
          "type": "address"
        }
      ],
      "name": "setFxStateRootTunnel",
      "outputs": [],
      "stateMutability": "nonpayable",
      "type": "function"
    },
    {
      "inputs": [
        {
          "internalType": "address",
          "name": "_address",
          "type": "address"
        }
      ],
      "name": "setInsuranceAddress",
      "outputs": [],
      "stateMutability": "nonpayable",
      "type": "function"
    },
    {
      "inputs": [
        {
          "internalType": "address",
          "name": "_address",
          "type": "address"
        }
      ],
      "name": "setNodeOperatorRegistryAddress",
      "outputs": [],
      "stateMutability": "nonpayable",
      "type": "function"
    },
    {
      "inputs": [
        {
          "internalType": "address",
          "name": "_poLidoNFT",
          "type": "address"
        }
      ],
      "name": "setPoLidoNFT",
      "outputs": [],
      "stateMutability": "nonpayable",
      "type": "function"
    },
    {
      "inputs": [
        {
          "internalType": "uint256",
          "name": "_rewardDistributionLowerBound",
          "type": "uint256"
        }
      ],
      "name": "setRewardDistributionLowerBound",
      "outputs": [],
      "stateMutability": "nonpayable",
      "type": "function"
    },
    {
      "inputs": [
        {
          "internalType": "uint256",
          "name": "_submitThreshold",
          "type": "uint256"
        }
      ],
      "name": "setSubmitThreshold",
      "outputs": [],
      "stateMutability": "nonpayable",
      "type": "function"
    },
    {
      "inputs": [
        {
          "internalType": "string",
          "name": "_version",
          "type": "string"
        }
      ],
      "name": "setVersion",
      "outputs": [],
      "stateMutability": "nonpayable",
      "type": "function"
    },
    {
      "inputs": [],
      "name": "stakeManager",
      "outputs": [
        {
          "internalType": "contract IStakeManager",
          "name": "",
          "type": "address"
        }
      ],
      "stateMutability": "view",
      "type": "function"
    },
    {
      "inputs": [
        {
          "internalType": "uint256",
          "name": "_amount",
          "type": "uint256"
        }
      ],
      "name": "submit",
      "outputs": [
        {
          "internalType": "uint256",
          "name": "",
          "type": "uint256"
        }
      ],
      "stateMutability": "nonpayable",
      "type": "function"
    },
    {
      "inputs": [],
      "name": "submitHandler",
      "outputs": [
        {
          "internalType": "bool",
          "name": "",
          "type": "bool"
        }
      ],
      "stateMutability": "view",
      "type": "function"
    },
    {
      "inputs": [],
      "name": "submitThreshold",
      "outputs": [
        {
          "internalType": "uint256",
          "name": "",
          "type": "uint256"
        }
      ],
      "stateMutability": "view",
      "type": "function"
    },
    {
      "inputs": [
        {
          "internalType": "bytes4",
          "name": "interfaceId",
          "type": "bytes4"
        }
      ],
      "name": "supportsInterface",
      "outputs": [
        {
          "internalType": "bool",
          "name": "",
          "type": "bool"
        }
      ],
      "stateMutability": "view",
      "type": "function"
    },
    {
      "inputs": [],
      "name": "symbol",
      "outputs": [
        {
          "internalType": "string",
          "name": "",
          "type": "string"
        }
      ],
      "stateMutability": "view",
      "type": "function"
    },
    {
      "inputs": [],
      "name": "togglePause",
      "outputs": [],
      "stateMutability": "nonpayable",
      "type": "function"
    },
    {
      "inputs": [],
      "name": "token",
      "outputs": [
        {
          "internalType": "address",
          "name": "",
          "type": "address"
        }
      ],
      "stateMutability": "view",
      "type": "function"
    },
    {
      "inputs": [
        {
          "internalType": "uint256",
          "name": "",
          "type": "uint256"
        }
      ],
      "name": "token2WithdrawRequest",
      "outputs": [
        {
          "internalType": "uint256",
          "name": "amount2WithdrawFromStMATIC",
          "type": "uint256"
        },
        {
          "internalType": "uint256",
          "name": "validatorNonce",
          "type": "uint256"
        },
        {
          "internalType": "uint256",
          "name": "requestTime",
          "type": "uint256"
        },
        {
          "internalType": "address",
          "name": "validatorAddress",
          "type": "address"
        }
      ],
      "stateMutability": "view",
      "type": "function"
    },
    {
      "inputs": [],
      "name": "totalBuffered",
      "outputs": [
        {
          "internalType": "uint256",
          "name": "",
          "type": "uint256"
        }
      ],
      "stateMutability": "view",
      "type": "function"
    },
    {
      "inputs": [],
      "name": "totalSupply",
      "outputs": [
        {
          "internalType": "uint256",
          "name": "",
          "type": "uint256"
        }
      ],
      "stateMutability": "view",
      "type": "function"
    },
    {
      "inputs": [
        {
          "internalType": "address",
          "name": "recipient",
          "type": "address"
        },
        {
          "internalType": "uint256",
          "name": "amount",
          "type": "uint256"
        }
      ],
      "name": "transfer",
      "outputs": [
        {
          "internalType": "bool",
          "name": "",
          "type": "bool"
        }
      ],
      "stateMutability": "nonpayable",
      "type": "function"
    },
    {
      "inputs": [
        {
          "internalType": "address",
          "name": "sender",
          "type": "address"
        },
        {
          "internalType": "address",
          "name": "recipient",
          "type": "address"
        },
        {
          "internalType": "uint256",
          "name": "amount",
          "type": "uint256"
        }
      ],
      "name": "transferFrom",
      "outputs": [
        {
          "internalType": "bool",
          "name": "",
          "type": "bool"
        }
      ],
      "stateMutability": "nonpayable",
      "type": "function"
    },
    {
      "inputs": [],
      "name": "version",
      "outputs": [
        {
          "internalType": "string",
          "name": "",
          "type": "string"
        }
      ],
      "stateMutability": "view",
      "type": "function"
    },
    {
      "inputs": [
        {
          "internalType": "address",
          "name": "_validatorShare",
          "type": "address"
        }
      ],
      "name": "withdrawTotalDelegated",
      "outputs": [],
      "stateMutability": "nonpayable",
      "type": "function"
    }
  ],
  "bytecode": "0x608060405234801561001057600080fd5b50614fdf806100206000396000f3fe608060405234801561001057600080fd5b50600436106103e65760003560e01c80637682c9021161020a578063bb208f5511610125578063dd62ed3e116100b8578063ea99c2a611610087578063ea99c2a6146108a1578063ee319c21146108b4578063f08711fe146108c7578063f6794fdb1461092f578063fc0c546a1461094257600080fd5b8063dd62ed3e14610837578063e00222a014610870578063e062b10b14610878578063e259faf71461088c57600080fd5b8063c89e4361116100f4578063c89e4361146107ff578063ce99b58614610807578063d547741f14610811578063d968447c1461082457600080fd5b8063bb208f55146107c9578063c07c030e146107dc578063c4ae3168146107e4578063c75e7832146107ec57600080fd5b806395d89b411161019d578063a217fddf1161016c578063a217fddf14610791578063a245294714610799578063a457c2d7146107a3578063a9059cbb146107b657600080fd5b806395d89b411461071d578063964a75961461072557806398fabd3a146107695780639a3cac6a1461077e57600080fd5b8063893818a3116101d9578063893818a3146106be57806389cf3204146106c8578063917a52f5146106dc57806391d148541461070a57600080fd5b80637682c9021461067d578063788bc78c146106905780637e978af8146106a357806388301911146106ab57600080fd5b80633950935111610305578063676e55501161029857806370bf9fe91161026757806370bf9fe91461062757806371975a3e1461063a578063720bcf1d14610644578063745400c9146106575780637542ff951461066a57600080fd5b8063676e5550146105d05780636f4a2cd0146105e35780637029c90e146105eb57806370a08231146105fe57600080fd5b8063509c5df6116102d4578063509c5df6146105a957806352349b17146105b357806354fd4d50146105bd5780635c975abb146105c557600080fd5b8063395093511461055c5780633b573c4a1461056f5780634162169f1461058257806346e04a2f1461059657600080fd5b806318160ddd1161037d5780632f2ff15d1161034c5780632f2ff15d14610514578063313ce5671461052757806331bb3a971461053657806336568abe1461054957600080fd5b806318160ddd146104ae5780631e7ff8f6146104b657806323b872dd146104de578063248a9ca3146104f157600080fd5b80630d7abc33116103b95780630d7abc33146104665780630d946b711461047e5780630f2b26391461048657806315539d3f1461049b57600080fd5b806301ffc9a7146103eb578063023c5b081461041357806306fdde031461043e578063095ea7b314610453575b600080fd5b6103fe6103f9366004614afa565b610956565b60405190151581526020015b60405180910390f35b60fb54610426906001600160a01b031681565b6040516001600160a01b03909116815260200161040a565b61044661098d565b60405161040a9190614d22565b6103fe610461366004614976565b610a1f565b6104706101055481565b60405190815260200161040a565b610470610a35565b610499610494366004614822565b610ad2565b005b6104996104a9366004614822565b610b0e565b603554610470565b6104c96104c4366004614822565b610b4a565b6040805192835260208301919091520161040a565b6103fe6104ec366004614935565b610bce565b6104706104ff366004614abc565b60009081526097602052604090206001015490565b610499610522366004614ad5565b610c7f565b6040516012815260200161040a565b610499610544366004614abc565b610caa565b610499610557366004614ad5565b6110fb565b6103fe61056a366004614976565b611179565b61049961057d366004614abc565b6111b5565b61010054610426906001600160a01b031681565b6104996105a4366004614abc565b6111d5565b6104706101075481565b6104706101045481565b6104466115c9565b60c95460ff166103fe565b6104706105de366004614822565b611657565b6104996116d1565b60fe54610426906001600160a01b031681565b61047061060c366004614822565b6001600160a01b031660009081526033602052604090205490565b610499610635366004614822565b611c75565b6104706101035481565b610470610652366004614abc565b611cb2565b610499610665366004614abc565b611ebd565b60fd54610426906001600160a01b031681565b61049961068b366004614abc565b6126f4565b61049961069e366004614b24565b612714565b610470612732565b6104996106b9366004614895565b612822565b61047061010b5481565b61010154610426906001600160a01b031681565b6106ef6106ea366004614abc565b612a19565b6040805193845260208401929092529082015260600161040a565b6103fe610718366004614ad5565b612a7d565b610446612aa8565b60fc546107459060ff808216916101008104821691620100009091041683565b6040805160ff9485168152928416602084015292169181019190915260600161040a565b610470600080516020614f8a83398151915281565b61049961078c366004614822565b612ab7565b610470600081565b6104706101065481565b6103fe6107b1366004614976565b612b2e565b6103fe6107c4366004614976565b612bc7565b6104996107d7366004614822565b612bd4565b610499612c11565b610499612c4d565b6104996107fa366004614822565b612c76565b610499613022565b6104706101085481565b61049961081f366004614ad5565b61337d565b6106ef610832366004614abc565b6133a3565b61047061084536600461485c565b6001600160a01b03918216600090815260346020908152604080832093909416825291909152205490565b6104706133ef565b61010a54610426906001600160a01b031681565b61010a546103fe90600160a01b900460ff1681565b6104706108af366004614abc565b613419565b6104996108c2366004614abc565b613614565b6109066108d5366004614abc565b610109602052600090815260409020805460018201546002830154600390930154919290916001600160a01b031684565b604080519485526020850193909352918301526001600160a01b0316606082015260800161040a565b61049961093d366004614c22565b613634565b61010254610426906001600160a01b031681565b60006001600160e01b03198216637965db0b60e01b148061098757506301ffc9a760e01b6001600160e01b03198316145b92915050565b60606036805461099c90614edc565b80601f01602080910402602001604051908101604052809291908181526020018280546109c890614edc565b8015610a155780601f106109ea57610100808354040283529160200191610a15565b820191906000526020600020905b8154815290600101906020018083116109f857829003601f168201915b5050505050905090565b6000610a2c3384846136db565b50600192915050565b60fb54604051634a84dabb60e01b8152600060048201819052600160248301529182916001600160a01b0390911690634a84dabb9060440160006040518083038186803b158015610a8557600080fd5b505afa158015610a99573d6000803e3d6000fd5b505050506040513d6000823e601f3d908101601f19168201604052610ac191908101906149a2565b9050610acc816137ff565b91505090565b600080516020614f8a833981519152610aeb813361386e565b5060fb80546001600160a01b0319166001600160a01b0392909216919091179055565b600080516020614f8a833981519152610b27813361386e565b5060fe80546001600160a01b0319166001600160a01b0392909216919091179055565b604051630f3ffc7b60e11b815230600482015260009081906001600160a01b03841690631e7ff8f690602401604080518083038186803b158015610b8d57600080fd5b505afa158015610ba1573d6000803e3d6000fd5b505050506040513d601f19601f82011682018060405250810190610bc59190614bfe565b91509150915091565b6000610bdb8484846138d2565b6001600160a01b038416600090815260346020908152604080832033845290915290205482811015610c655760405162461bcd60e51b815260206004820152602860248201527f45524332303a207472616e7366657220616d6f756e74206578636565647320616044820152676c6c6f77616e636560c01b60648201526084015b60405180910390fd5b610c7285338584036136db565b60019150505b9392505050565b600082815260976020526040902060010154610c9b813361386e565b610ca58383613aa0565b505050565b60c95460ff1615610ccd5760405162461bcd60e51b8152600401610c5c90614d35565b600081815261010960205260409081902060fe5491516331a9108f60e11b815260048101849052909130916001600160a01b0390911690636352211e9060240160206040518083038186803b158015610d2557600080fd5b505afa158015610d39573d6000803e3d6000fd5b505050506040513d601f19601f82011682018060405250810190610d5d919061483f565b6001600160a01b031614610daa5760405162461bcd60e51b8152602060048201526014602482015273139bdd081bdddb995c881bd9881d1a194813919560621b6044820152606401610c5c565b60fe54604051630852cd8d60e31b8152600481018490526001600160a01b03909116906342966c6890602401600060405180830381600087803b158015610df057600080fd5b505af1158015610e04573d6000803e3d6000fd5b50505050806002015460fd60009054906101000a90046001600160a01b03166001600160a01b031663900cf0cf6040518163ffffffff1660e01b815260040160206040518083038186803b158015610e5b57600080fd5b505afa158015610e6f573d6000803e3d6000fd5b505050506040513d601f19601f82011682018060405250810190610e939190614be5565b1015610ed95760405162461bcd60e51b8152602060048201526015602482015274139bdd0818589b19481d1bc818db185a5b481e595d605a1b6044820152606401610c5c565b610102546040516370a0823160e01b81523060048201526000916001600160a01b0316906370a082319060240160206040518083038186803b158015610f1e57600080fd5b505afa158015610f32573d6000803e3d6000fd5b505050506040513d601f19601f82011682018060405250810190610f569190614be5565b60038301546001840154919250610f78916001600160a01b0390911690613b26565b610102546040516370a0823160e01b815230600482015260009183916001600160a01b03909116906370a082319060240160206040518083038186803b158015610fc157600080fd5b505afa158015610fd5573d6000803e3d6000fd5b505050506040513d601f19601f82011682018060405250810190610ff99190614be5565b6110039190614e82565b90508061010460008282546110189190614e04565b909155505061010a546001600160a01b0316634c09e6e861103860355490565b6110406133ef565b6040805160208101939093528201526060016040516020818303038152906040526040518263ffffffff1660e01b815260040161107d9190614d22565b600060405180830381600087803b15801561109757600080fd5b505af11580156110ab573d6000803e3d6000fd5b505050508084306001600160a01b03167faca94a3466fab333b79851ab29b0715612740e4ae0d891ef8e9bd2a1bf5e24dd60006040516110ed91815260200190565b60405180910390a450505050565b6001600160a01b038116331461116b5760405162461bcd60e51b815260206004820152602f60248201527f416363657373436f6e74726f6c3a2063616e206f6e6c792072656e6f756e636560448201526e103937b632b9903337b91039b2b63360891b6064820152608401610c5c565b6111758282613b84565b5050565b3360008181526034602090815260408083206001600160a01b03871684529091528120549091610a2c9185906111b0908690614e04565b6136db565b600080516020614f8a8339815191526111ce813361386e565b5061010655565b60c95460ff16156111f85760405162461bcd60e51b8152600401610c5c90614d35565b60fe5460405163430c208160e01b8152336004820152602481018390526001600160a01b039091169063430c20819060440160206040518083038186803b15801561124257600080fd5b505afa158015611256573d6000803e3d6000fd5b505050506040513d601f19601f8201168201806040525081019061127a9190614a9a565b6112b25760405162461bcd60e51b81526020600482015260096024820152682737ba1037bbb732b960b91b6044820152606401610c5c565b60008181526101096020908152604091829020600281015460fd54845163900cf0cf60e01b81529451929491936001600160a01b039091169263900cf0cf926004808201939291829003018186803b15801561130d57600080fd5b505afa158015611321573d6000803e3d6000fd5b505050506040513d601f19601f820116820180604052508101906113459190614be5565b101561138b5760405162461bcd60e51b8152602060048201526015602482015274139bdd0818589b19481d1bc818db185a5b481e595d605a1b6044820152606401610c5c565b60fe54604051630852cd8d60e31b8152600481018490526001600160a01b03909116906342966c6890602401600060405180830381600087803b1580156113d157600080fd5b505af11580156113e5573d6000803e3d6000fd5b5050506003820154600091506001600160a01b03161561152c57610102546040516370a0823160e01b81523060048201526000916001600160a01b0316906370a082319060240160206040518083038186803b15801561144457600080fd5b505afa158015611458573d6000803e3d6000fd5b505050506040513d601f19601f8201168201806040525081019061147c9190614be5565b6003840154600185015491925061149e916001600160a01b0390911690613b26565b610102546040516370a0823160e01b815230600482015282916001600160a01b0316906370a082319060240160206040518083038186803b1580156114e257600080fd5b505afa1580156114f6573d6000803e3d6000fd5b505050506040513d601f19601f8201168201806040525081019061151a9190614be5565b6115249190614e82565b915050611566565b816000015490508061010760008282546115469190614e82565b925050819055508061010460008282546115609190614e82565b90915550505b6101025461157e906001600160a01b03163383613beb565b8083336001600160a01b03167faca94a3466fab333b79851ab29b0715612740e4ae0d891ef8e9bd2a1bf5e24dd60006040516115bc91815260200190565b60405180910390a4505050565b60ff80546115d690614edc565b80601f016020809104026020016040519081016040528092919081815260200182805461160290614edc565b801561164f5780601f106116245761010080835404028352916020019161164f565b820191906000526020600020905b81548152906001019060200180831161163257829003601f168201915b505050505081565b604051630676e55560e41b81523060048201526000906001600160a01b0383169063676e55509060240160206040518083038186803b15801561169957600080fd5b505afa1580156116ad573d6000803e3d6000fd5b505050506040513d601f19601f820116820180604052508101906109879190614be5565b60c95460ff16156116f45760405162461bcd60e51b8152600401610c5c90614d35565b60fb54604051634a84dabb60e01b815260016004820152600060248201819052916001600160a01b031690634a84dabb9060440160006040518083038186803b15801561174057600080fd5b505afa158015611754573d6000803e3d6000fd5b505050506040513d6000823e601f3d908101601f1916820160405261177c91908101906149a2565b805190915060005b818110156119135760008382815181106117a0576117a0614f48565b6020908102919091018101510151604051630676e55560e41b81523060048201529091506000906001600160a01b0383169063676e55509060240160206040518083038186803b1580156117f357600080fd5b505afa158015611807573d6000803e3d6000fd5b505050506040513d601f19601f8201168201806040525081019061182b9190614be5565b90506000826001600160a01b0316639b2cb5d86040518163ffffffff1660e01b815260040160206040518083038186803b15801561186857600080fd5b505afa15801561187c573d6000803e3d6000fd5b505050506040513d601f19601f820116820180604052508101906118a09190614be5565b90508082106118fd57826001600160a01b031663c7b8981c6040518163ffffffff1660e01b8152600401600060405180830381600087803b1580156118e457600080fd5b505af11580156118f8573d6000803e3d6000fd5b505050505b505050808061190b90614f17565b915050611784565b5061010454610102546040516370a0823160e01b8152306004820152600092600a9290916001600160a01b03909116906370a082319060240160206040518083038186803b15801561196457600080fd5b505afa158015611978573d6000803e3d6000fd5b505050506040513d601f19601f8201168201806040525081019061199c9190614be5565b6119a69190614e82565b6119b09190614e41565b9050610106548111611a145760405162461bcd60e51b815260206004820152602760248201527f416d6f756e7420746f2064697374726962757465206c6f776572207468616e206044820152666d696e696d756d60c81b6064820152608401610c5c565b610102546040516370a0823160e01b81523060048201526000916001600160a01b0316906370a082319060240160206040518083038186803b158015611a5957600080fd5b505afa158015611a6d573d6000803e3d6000fd5b505050506040513d601f19601f82011682018060405250810190611a919190614be5565b60fc54909150600090606490611aaa9060ff1685614e63565b611ab49190614e41565b60fc54909150600090606490611ad39062010000900460ff1686614e63565b611add9190614e41565b60fc54909150600090606490611afb90610100900460ff1687614e63565b611b059190614e41565b90506000611b138783614e41565b6101005461010254919250611b35916001600160a01b03908116911686613beb565b6101015461010254611b54916001600160a01b03918216911685613beb565b60005b87811015611ba957611b97898281518110611b7457611b74614f48565b602090810291909101015160600151610102546001600160a01b03169084613beb565b80611ba181614f17565b915050611b57565b50610102546040516370a0823160e01b81523060048201526000916001600160a01b0316906370a082319060240160206040518083038186803b158015611bef57600080fd5b505afa158015611c03573d6000803e3d6000fd5b505050506040513d601f19601f82011682018060405250810190611c279190614be5565b90506000611c358288614e82565b61010483905560405190915081907f4e3c6a1e602996ae70905ac6165ed2434753246e3bfa52b6ca6852b40e2d440890600090a250505050505050505050565b600080516020614f8a833981519152611c8e813361386e565b5061010a80546001600160a01b0319166001600160a01b0392909216919091179055565b6000818152610109602090815260408083208151608081018352815481526001820154818501526002820154818401526003909101546001600160a01b0316606082018190528251632e2fbed760e11b815292519193909285928492635c5f7dae9260048082019391829003018186803b158015611d2f57600080fd5b505afa158015611d43573d6000803e3d6000fd5b505050506040513d601f19601f82011682018060405250810190611d679190614be5565b9050600060088210611d86576c01431e0fae6d7217caa0000000611d89565b60645b6cffffffffffffffffffffffffff1690506000836001600160a01b031663bfb18f296040518163ffffffff1660e01b815260040160206040518083038186803b158015611dd557600080fd5b505afa158015611de9573d6000803e3d6000fd5b505050506040513d601f19601f82011682018060405250810190611e0d9190614be5565b602086015160405163795be58760e01b815230600482015260248101919091529091506000906001600160a01b0386169063795be58790604401604080518083038186803b158015611e5e57600080fd5b505afa158015611e72573d6000803e3d6000fd5b505050506040513d601f19601f82011682018060405250810190611e969190614b96565b80519091508390611ea79084614e63565b611eb19190614e41565b98975050505050505050565b60c95460ff1615611ee05760405162461bcd60e51b8152600401610c5c90614d35565b60008111611f215760405162461bcd60e51b815260206004820152600e60248201526d125b9d985b1a5908185b5bdd5b9d60921b6044820152606401610c5c565b60fb54604051634a84dabb60e01b815260006004820181905260016024830152916001600160a01b031690634a84dabb9060440160006040518083038186803b158015611f6d57600080fd5b505afa158015611f81573d6000803e3d6000fd5b505050506040513d6000823e601f3d908101601f19168201604052611fa991908101906149a2565b80519091506000808080611fbc876133a3565b91945092509050826000611fce612732565b90506000611fdb896137ff565b90506000821561206757611fef8983614e63565b611ff99085614e04565b610104546120079085614e04565b101561204c5760405162461bcd60e51b8152602060048201526014602482015273546f6f206d75636820746f20776974686472617760601b6044820152606401610c5c565b6120568983614e63565b6120609084614e82565b90506120b1565b836101045410156120b15760405162461bcd60e51b8152602060048201526014602482015273546f6f206d75636820746f20776974686472617760601b6044820152606401610c5c565b831561261b5760fe546040516335313c2160e11b81523360048201526001600160a01b0390911690636a62784290602401602060405180830381600087803b1580156120fc57600080fd5b505af1158015612110573d6000803e3d6000fd5b505050506040513d601f19601f820116820180604052508101906121349190614be5565b975080156124755761214760018a614e82565b610103541115612158576000610103555b60008a610103548151811061216f5761216f614f48565b6020908102919091018101510151604051630f3ffc7b60e11b81523060048201529091506000906001600160a01b03831690631e7ff8f690602401604080518083038186803b1580156121c157600080fd5b505afa1580156121d5573d6000803e3d6000fd5b505050506040513d601f19601f820116820180604052508101906121f99190614bfe565b50905083811161222057610103805490600061221483614f17565b919050555050506120b1565b600061222c8583614e82565b905060008782111561223e5787612240565b815b905061224f8482600019613c4e565b60408051608081018252600081529051630c11b08160e21b815230600482015260208201906001600160a01b03871690633046c2049060240160206040518083038186803b1580156122a057600080fd5b505afa1580156122b4573d6000803e3d6000fd5b505050506040513d601f19601f820116820180604052508101906122d89190614be5565b815260fd546040805163a7ab696160e01b815290516020938401936001600160a01b039093169263a7ab69619260048082019391829003018186803b15801561232057600080fd5b505afa158015612334573d6000803e3d6000fd5b505050506040513d601f19601f820116820180604052508101906123589190614be5565b60fd60009054906101000a90046001600160a01b03166001600160a01b031663900cf0cf6040518163ffffffff1660e01b815260040160206040518083038186803b1580156123a657600080fd5b505afa1580156123ba573d6000803e3d6000fd5b505050506040513d601f19601f820116820180604052508101906123de9190614be5565b6123e89190614e04565b81526001600160a01b0386811660209283015260008f81526101098352604090819020845181559284015160018401558301516002830155606090920151600390910180546001600160a01b031916919092161790556124488186614e82565b94506124548189614e82565b6101038054919950600061246783614f17565b9190505550505050506120b1565b60405180608001604052808581526020016000815260200160fd60009054906101000a90046001600160a01b03166001600160a01b031663a7ab69616040518163ffffffff1660e01b815260040160206040518083038186803b1580156124db57600080fd5b505afa1580156124ef573d6000803e3d6000fd5b505050506040513d601f19601f820116820180604052508101906125139190614be5565b60fd60009054906101000a90046001600160a01b03166001600160a01b031663900cf0cf6040518163ffffffff1660e01b815260040160206040518083038186803b15801561256157600080fd5b505afa158015612575573d6000803e3d6000fd5b505050506040513d601f19601f820116820180604052508101906125999190614be5565b6125a39190614e04565b8152600060209182018190528a815261010982526040808220845181559284015160018401558301516002830155606090920151600390910180546001600160a01b0319166001600160a01b03909216919091179055610107805486929061260c908490614e04565b90915550600094506120b19050565b612625338c613cb4565b61010a546001600160a01b0316634c09e6e86126418d89614e82565b61264b8a89614e82565b6040805160208101939093528201526060016040516020818303038152906040526040518263ffffffff1660e01b81526004016126889190614d22565b600060405180830381600087803b1580156126a257600080fd5b505af11580156126b6573d6000803e3d6000fd5b50506040518d92503391507f8a8169c8a646f81d6d6ad8ed0cf560361c75cb37a74656f2487d0fa9bfcb084490600090a35050505050505050505050565b600080516020614f8a83398151915261270d813361386e565b5061010555565b6000612720813361386e565b61272c60ff8484614704565b50505050565b60fb54604051634a84dabb60e01b81526000600482018190526001602483015291829182916001600160a01b031690634a84dabb9060440160006040518083038186803b15801561278257600080fd5b505afa158015612796573d6000803e3d6000fd5b505050506040513d6000823e601f3d908101601f191682016040526127be91908101906149a2565b805190915060005b818110156128195760006127f68483815181106127e5576127e5614f48565b602002602001015160200151610b4a565b5090506128038186614e04565b945050808061281190614f17565b9150506127c6565b50919392505050565b600054610100900460ff1661283d5760005460ff1615612841565b303b155b6128a45760405162461bcd60e51b815260206004820152602e60248201527f496e697469616c697a61626c653a20636f6e747261637420697320616c72656160448201526d191e481a5b9a5d1a585b1a5e995960921b6064820152608401610c5c565b600054610100900460ff161580156128c6576000805461ffff19166101011790555b6128ce613e02565b6128d6613e43565b6129236040518060400160405280600c81526020016b5374616b6564204d4154494360a01b8152506040518060400160405280600781526020016673744d4154494360c81b815250613e7a565b61292e600033613eb3565b612946600080516020614f8a83398151915288613eb3565b60fb80546001600160a01b03199081166001600160a01b038c81169190911790925560fd8054821688841617905560fe8054821687841617905561010a8054610100805484168c8616179055610102805484168d861617905561010180549093168a8516179092556040805160608101825260198082526032602083015291015260fc805462ffffff19166219321917905561010b859055600160a01b9286166001600160a81b0319909216919091179190911790558015612a0e576000805461ff00191690555b505050505050505050565b600080600080612a2860355490565b90508015612a365780612a39565b60015b90506000612a456133ef565b90508015612a535780612a56565b60015b9050600081612a658489614e63565b612a6f9190614e41565b979296509094509092505050565b60009182526097602090815260408084206001600160a01b0393909316845291905290205460ff1690565b60606037805461099c90614edc565b600080516020614f8a833981519152612ad0813361386e565b61010054612af690600080516020614f8a833981519152906001600160a01b031661337d565b61010080546001600160a01b0319166001600160a01b03841690811790915561117590600080516020614f8a83398151915290613eb3565b3360009081526034602090815260408083206001600160a01b038616845290915281205482811015612bb05760405162461bcd60e51b815260206004820152602560248201527f45524332303a2064656372656173656420616c6c6f77616e63652062656c6f77604482015264207a65726f60d81b6064820152608401610c5c565b612bbd33858584036136db565b5060019392505050565b6000610a2c3384846138d2565b600080516020614f8a833981519152612bed813361386e565b5061010180546001600160a01b0319166001600160a01b0392909216919091179055565b600080516020614f8a833981519152612c2a813361386e565b5061010a805460ff60a01b198116600160a01b9182900460ff1615909102179055565b6000612c59813361386e565b60c95460ff16612c6e57612c6b613ebd565b50565b612c6b613f32565b60fb546001600160a01b03163314612cc65760405162461bcd60e51b81526020600482015260136024820152722737ba1030903737b2329037b832b930ba37b960691b6044820152606401610c5c565b6000612cd182610b4a565b50905080612cdd575050565b60fe546040516335313c2160e11b81523060048201526000916001600160a01b031690636a62784290602401602060405180830381600087803b158015612d2357600080fd5b505af1158015612d37573d6000803e3d6000fd5b505050506040513d601f19601f82011682018060405250810190612d5b9190614be5565b9050612d6a8383600019613c4e565b60408051608081018252600081529051630c11b08160e21b815230600482015260208201906001600160a01b03861690633046c2049060240160206040518083038186803b158015612dbb57600080fd5b505afa158015612dcf573d6000803e3d6000fd5b505050506040513d601f19601f82011682018060405250810190612df39190614be5565b815260fd546040805163a7ab696160e01b815290516020938401936001600160a01b039093169263a7ab69619260048082019391829003018186803b158015612e3b57600080fd5b505afa158015612e4f573d6000803e3d6000fd5b505050506040513d601f19601f82011682018060405250810190612e739190614be5565b60fd60009054906101000a90046001600160a01b03166001600160a01b031663900cf0cf6040518163ffffffff1660e01b815260040160206040518083038186803b158015612ec157600080fd5b505afa158015612ed5573d6000803e3d6000fd5b505050506040513d601f19601f82011682018060405250810190612ef99190614be5565b612f039190614e04565b81526001600160a01b0380861660209283015260008481526101098352604090819020845181559284015160018401558301516002830155606090920151600390910180549183166001600160a01b031990921691909117905561010a5416634c09e6e8612f7060355490565b612f786133ef565b6040805160208101939093528201526060016040516020818303038152906040526040518263ffffffff1660e01b8152600401612fb59190614d22565b600060405180830381600087803b158015612fcf57600080fd5b505af1158015612fe3573d6000803e3d6000fd5b50506040518492506001600160a01b03861691507f65fcdf1cdc99352d178d6d953d52e01307cde7a592027b09c9e1d9ac8eb09ab790600090a3505050565b60c95460ff16156130455760405162461bcd60e51b8152600401610c5c90614d35565b61010754610105546130579190614e04565b61010454116130b65760405162461bcd60e51b815260206004820152602560248201527f416d6f756e7420746f2064656c6567617465206c6f776572207468616e206d696044820152646e696d756d60d81b6064820152608401610c5c565b60fb54604051634a84dabb60e01b815260016004820152600060248201819052916001600160a01b031690634a84dabb9060440160006040518083038186803b15801561310257600080fd5b505afa158015613116573d6000803e3d6000fd5b505050506040513d6000823e601f3d908101601f1916820160405261313e91908101906149a2565b80519091508061319c5760405162461bcd60e51b815260206004820152602360248201527f4e6f206f70657261746f72207368617265732c2063616e6e6f742064656c656760448201526261746560e81b6064820152608401610c5c565b600061010754610104546131b09190614e82565b905060008060005b848110156131fd578581815181106131d2576131d2614f48565b602002602001015160400151836131e99190614e04565b9250806131f581614f17565b9150506131b8565b50600082116132475760405162461bcd60e51b815260206004820152601660248201527506d617844656c65676174654c696d69747353756d3d360541b6044820152606401610c5c565b6000838311156132575783613259565b825b60fd546101025491925061327b916001600160a01b0390811691166000613fac565b60fd5461010254613299916001600160a01b03918216911683613fac565b6000805b8681101561332757600085848a84815181106132bb576132bb614f48565b6020026020010151604001516132d19190614e63565b6132db9190614e41565b90506133068983815181106132f2576132f2614f48565b6020026020010151602001518260006140d0565b506133118184614e04565b925050808061331f90614f17565b91505061329d565b506133328186614e82565b925061010754836133439190614e04565b61010455604051839082907f421adba60af7a6b11679e2ac133b1bc91d3de91d56866ec19703d9d60cf950c890600090a350505050505050565b600082815260976020526040902060010154613399813361386e565b610ca58383613b84565b6000806000806133b260355490565b905080156133c057806133c3565b60015b905060006133cf6133ef565b905080156133dd57806133e0565b60015b9050600082612a658389614e63565b6000806133fa612732565b905061010754610104548261340f9190614e04565b610acc9190614e82565b600061342760c95460ff1690565b156134445760405162461bcd60e51b8152600401610c5c90614d35565b600082116134855760405162461bcd60e51b815260206004820152600e60248201526d125b9d985b1a5908185b5bdd5b9d60921b6044820152606401610c5c565b61010a54600160a01b900460ff16156134f85761010b54610104546134aa9084614e04565b11156134f85760405162461bcd60e51b815260206004820152601860248201527f5375626d6974207468726573686f6c64207265616368656400000000000000006044820152606401610c5c565b61010254613511906001600160a01b031633308561415f565b600080600061351f85612a19565b92509250925061352f3384614197565b8461010460008282546135429190614e04565b909155505061010a546001600160a01b0316634c09e6e86135638585614e04565b61356d8885614e04565b6040805160208101939093528201526060016040516020818303038152906040526040518263ffffffff1660e01b81526004016135aa9190614d22565b600060405180830381600087803b1580156135c457600080fd5b505af11580156135d8573d6000803e3d6000fd5b50506040518792503391507f8cab5a17f7d817d11abfe3fb3f8dd67646d2643cb4222e5354bde1f65ef6c44c90600090a350909150505b919050565b600080516020614f8a83398151915261362d813361386e565b5061010b55565b600080516020614f8a83398151915261364d813361386e565b816136588486614e1c565b6136629190614e1c565b60ff166064146136a45760405162461bcd60e51b815260206004820152600d60248201526c073756d2866656529213d31303609c1b6044820152606401610c5c565b5060fc805460ff94851661ffff1990911617610100938516939093029290921762ff00001916620100009190931602919091179055565b6001600160a01b03831661373d5760405162461bcd60e51b8152602060048201526024808201527f45524332303a20617070726f76652066726f6d20746865207a65726f206164646044820152637265737360e01b6064820152608401610c5c565b6001600160a01b03821661379e5760405162461bcd60e51b815260206004820152602260248201527f45524332303a20617070726f766520746f20746865207a65726f206164647265604482015261737360f01b6064820152608401610c5c565b6001600160a01b0383811660008181526034602090815260408083209487168084529482529182902085905590518481527f8c5be1e5ebec7d5bd14f71427d1e84f3dd0314c0f7b2291e5b200ac8c7c3b925910160405180910390a3505050565b8051600090600019825b828110156138665760006138288683815181106127e5576127e5614f48565b5090506000613838600a83614e41565b9050801580159061384857508381105b15613851578093505b5050808061385e90614f17565b915050613809565b509392505050565b6138788282612a7d565b61117557613890816001600160a01b03166014614276565b61389b836020614276565b6040516020016138ac929190614cad565b60408051601f198184030181529082905262461bcd60e51b8252610c5c91600401614d22565b6001600160a01b0383166139365760405162461bcd60e51b815260206004820152602560248201527f45524332303a207472616e736665722066726f6d20746865207a65726f206164604482015264647265737360d81b6064820152608401610c5c565b6001600160a01b0382166139985760405162461bcd60e51b815260206004820152602360248201527f45524332303a207472616e7366657220746f20746865207a65726f206164647260448201526265737360e81b6064820152608401610c5c565b6001600160a01b03831660009081526033602052604090205481811015613a105760405162461bcd60e51b815260206004820152602660248201527f45524332303a207472616e7366657220616d6f756e7420657863656564732062604482015265616c616e636560d01b6064820152608401610c5c565b6001600160a01b03808516600090815260336020526040808220858503905591851681529081208054849290613a47908490614e04565b92505081905550826001600160a01b0316846001600160a01b03167fddf252ad1be2c89b69c2b068fc378daa952ba7f163c4a11628f55a4df523b3ef84604051613a9391815260200190565b60405180910390a361272c565b613aaa8282612a7d565b6111755760008281526097602090815260408083206001600160a01b03851684529091529020805460ff19166001179055613ae23390565b6001600160a01b0316816001600160a01b0316837f2f8788117e7eff1d82e926ec794901d17c78024a50270940304540a733656f0d60405160405180910390a45050565b6040516374bfeee160e11b8152600481018290526001600160a01b0383169063e97fddc290602401600060405180830381600087803b158015613b6857600080fd5b505af1158015613b7c573d6000803e3d6000fd5b505050505050565b613b8e8282612a7d565b156111755760008281526097602090815260408083206001600160a01b0385168085529252808320805460ff1916905551339285917ff6391f5c32d9c69d2a47ea670b442974b53935d1edc7fd64eb21e047a839171b9190a45050565b6040516001600160a01b038316602482015260448101829052610ca590849063a9059cbb60e01b906064015b60408051601f198184030181529190526020810180516001600160e01b03166001600160e01b031990931692909217909152614412565b60405163c83ec04d60e01b815260048101839052602481018290526001600160a01b0384169063c83ec04d90604401600060405180830381600087803b158015613c9757600080fd5b505af1158015613cab573d6000803e3d6000fd5b50505050505050565b6001600160a01b038216613d145760405162461bcd60e51b815260206004820152602160248201527f45524332303a206275726e2066726f6d20746865207a65726f206164647265736044820152607360f81b6064820152608401610c5c565b6001600160a01b03821660009081526033602052604090205481811015613d885760405162461bcd60e51b815260206004820152602260248201527f45524332303a206275726e20616d6f756e7420657863656564732062616c616e604482015261636560f01b6064820152608401610c5c565b6001600160a01b0383166000908152603360205260408120838303905560358054849290613db7908490614e82565b90915550506040518281526000906001600160a01b038516907fddf252ad1be2c89b69c2b068fc378daa952ba7f163c4a11628f55a4df523b3ef9060200160405180910390a3505050565b600054610100900460ff16613e295760405162461bcd60e51b8152600401610c5c90614d5f565b613e316144e4565b613e396144e4565b613e416144e4565b565b600054610100900460ff16613e6a5760405162461bcd60e51b8152600401610c5c90614d5f565b613e726144e4565b613e4161450b565b600054610100900460ff16613ea15760405162461bcd60e51b8152600401610c5c90614d5f565b613ea96144e4565b611175828261453e565b6111758282613aa0565b60c95460ff1615613ee05760405162461bcd60e51b8152600401610c5c90614d35565b60c9805460ff191660011790557f62e78cea01bee320cd4e420270b5ea74000d11b0c9f74754ebdbfc544b05a258613f153390565b6040516001600160a01b03909116815260200160405180910390a1565b60c95460ff16613f7b5760405162461bcd60e51b815260206004820152601460248201527314185d5cd8589b194e881b9bdd081c185d5cd95960621b6044820152606401610c5c565b60c9805460ff191690557f5db9ee0a495bf2e6ff9c91a7834c1ba4fdd244a5e8aa4e537bd38aeae4b073aa33613f15565b8015806140355750604051636eb1769f60e11b81523060048201526001600160a01b03838116602483015284169063dd62ed3e9060440160206040518083038186803b158015613ffb57600080fd5b505afa15801561400f573d6000803e3d6000fd5b505050506040513d601f19601f820116820180604052508101906140339190614be5565b155b6140a05760405162461bcd60e51b815260206004820152603660248201527f5361666545524332303a20617070726f76652066726f6d206e6f6e2d7a65726f60448201527520746f206e6f6e2d7a65726f20616c6c6f77616e636560501b6064820152608401610c5c565b6040516001600160a01b038316602482015260448101829052610ca590849063095ea7b360e01b90606401613c17565b604051636ab1507160e01b8152600481018390526024810182905260009081906001600160a01b03861690636ab1507190604401602060405180830381600087803b15801561411e57600080fd5b505af1158015614132573d6000803e3d6000fd5b505050506040513d601f19601f820116820180604052508101906141569190614be5565b95945050505050565b6040516001600160a01b038085166024830152831660448201526064810182905261272c9085906323b872dd60e01b90608401613c17565b6001600160a01b0382166141ed5760405162461bcd60e51b815260206004820152601f60248201527f45524332303a206d696e7420746f20746865207a65726f2061646472657373006044820152606401610c5c565b80603560008282546141ff9190614e04565b90915550506001600160a01b0382166000908152603360205260408120805483929061422c908490614e04565b90915550506040518181526001600160a01b038316906000907fddf252ad1be2c89b69c2b068fc378daa952ba7f163c4a11628f55a4df523b3ef9060200160405180910390a35050565b60606000614285836002614e63565b614290906002614e04565b67ffffffffffffffff8111156142a8576142a8614f5e565b6040519080825280601f01601f1916602001820160405280156142d2576020820181803683370190505b509050600360fc1b816000815181106142ed576142ed614f48565b60200101906001600160f81b031916908160001a905350600f60fb1b8160018151811061431c5761431c614f48565b60200101906001600160f81b031916908160001a9053506000614340846002614e63565b61434b906001614e04565b90505b60018111156143c3576f181899199a1a9b1b9c1cb0b131b232b360811b85600f166010811061437f5761437f614f48565b1a60f81b82828151811061439557614395614f48565b60200101906001600160f81b031916908160001a90535060049490941c936143bc81614ec5565b905061434e565b508315610c785760405162461bcd60e51b815260206004820181905260248201527f537472696e67733a20686578206c656e67746820696e73756666696369656e746044820152606401610c5c565b6000614467826040518060400160405280602081526020017f5361666545524332303a206c6f772d6c6576656c2063616c6c206661696c6564815250856001600160a01b031661458c9092919063ffffffff16565b805190915015610ca557808060200190518101906144859190614a9a565b610ca55760405162461bcd60e51b815260206004820152602a60248201527f5361666545524332303a204552433230206f7065726174696f6e20646964206e6044820152691bdd081cdd58d8d9595960b21b6064820152608401610c5c565b600054610100900460ff16613e415760405162461bcd60e51b8152600401610c5c90614d5f565b600054610100900460ff166145325760405162461bcd60e51b8152600401610c5c90614d5f565b60c9805460ff19169055565b600054610100900460ff166145655760405162461bcd60e51b8152600401610c5c90614d5f565b8151614578906036906020850190614788565b508051610ca5906037906020840190614788565b606061459b84846000856145a3565b949350505050565b6060824710156146045760405162461bcd60e51b815260206004820152602660248201527f416464726573733a20696e73756666696369656e742062616c616e636520666f6044820152651c8818d85b1b60d21b6064820152608401610c5c565b843b6146525760405162461bcd60e51b815260206004820152601d60248201527f416464726573733a2063616c6c20746f206e6f6e2d636f6e74726163740000006044820152606401610c5c565b600080866001600160a01b0316858760405161466e9190614c91565b60006040518083038185875af1925050503d80600081146146ab576040519150601f19603f3d011682016040523d82523d6000602084013e6146b0565b606091505b50915091506146c08282866146cb565b979650505050505050565b606083156146da575081610c78565b8251156146ea5782518084602001fd5b8160405162461bcd60e51b8152600401610c5c9190614d22565b82805461471090614edc565b90600052602060002090601f0160209004810192826147325760008555614778565b82601f1061474b5782800160ff19823516178555614778565b82800160010185558215614778579182015b8281111561477857823582559160200191906001019061475d565b506147849291506147fc565b5090565b82805461479490614edc565b90600052602060002090601f0160209004810192826147b65760008555614778565b82601f106147cf57805160ff1916838001178555614778565b82800160010185558215614778579182015b828111156147785782518255916020019190600101906147e1565b5b8082111561478457600081556001016147fd565b803560ff8116811461360f57600080fd5b60006020828403121561483457600080fd5b8135610c7881614f74565b60006020828403121561485157600080fd5b8151610c7881614f74565b6000806040838503121561486f57600080fd5b823561487a81614f74565b9150602083013561488a81614f74565b809150509250929050565b600080600080600080600080610100898b0312156148b257600080fd5b88356148bd81614f74565b975060208901356148cd81614f74565b965060408901356148dd81614f74565b955060608901356148ed81614f74565b945060808901356148fd81614f74565b935060a089013561490d81614f74565b925060c089013561491d81614f74565b8092505060e089013590509295985092959890939650565b60008060006060848603121561494a57600080fd5b833561495581614f74565b9250602084013561496581614f74565b929592945050506040919091013590565b6000806040838503121561498957600080fd5b823561499481614f74565b946020939093013593505050565b600060208083850312156149b557600080fd5b825167ffffffffffffffff808211156149cd57600080fd5b818501915085601f8301126149e157600080fd5b8151818111156149f3576149f3614f5e565b614a01848260051b01614dd3565b8181528481019250838501600783901b85018601891015614a2157600080fd5b60009450845b83811015614a8c57608080838c031215614a3f578687fd5b614a47614daa565b8351815288840151614a5881614f74565b818a015260408481015190820152606080850151614a7581614f74565b908201528652948701949190910190600101614a27565b509098975050505050505050565b600060208284031215614aac57600080fd5b81518015158114610c7857600080fd5b600060208284031215614ace57600080fd5b5035919050565b60008060408385031215614ae857600080fd5b82359150602083013561488a81614f74565b600060208284031215614b0c57600080fd5b81356001600160e01b031981168114610c7857600080fd5b60008060208385031215614b3757600080fd5b823567ffffffffffffffff80821115614b4f57600080fd5b818501915085601f830112614b6357600080fd5b813581811115614b7257600080fd5b866020828501011115614b8457600080fd5b60209290920196919550909350505050565b600060408284031215614ba857600080fd5b6040516040810181811067ffffffffffffffff82111715614bcb57614bcb614f5e565b604052825181526020928301519281019290925250919050565b600060208284031215614bf757600080fd5b5051919050565b60008060408385031215614c1157600080fd5b505080516020909101519092909150565b600080600060608486031215614c3757600080fd5b614c4084614811565b9250614c4e60208501614811565b9150614c5c60408501614811565b90509250925092565b60008151808452614c7d816020860160208601614e99565b601f01601f19169290920160200192915050565b60008251614ca3818460208701614e99565b9190910192915050565b7f416363657373436f6e74726f6c3a206163636f756e7420000000000000000000815260008351614ce5816017850160208801614e99565b7001034b99036b4b9b9b4b733903937b6329607d1b6017918401918201528351614d16816028840160208801614e99565b01602801949350505050565b602081526000610c786020830184614c65565b60208082526010908201526f14185d5cd8589b194e881c185d5cd95960821b604082015260600190565b6020808252602b908201527f496e697469616c697a61626c653a20636f6e7472616374206973206e6f74206960408201526a6e697469616c697a696e6760a81b606082015260800190565b6040516080810167ffffffffffffffff81118282101715614dcd57614dcd614f5e565b60405290565b604051601f8201601f1916810167ffffffffffffffff81118282101715614dfc57614dfc614f5e565b604052919050565b60008219821115614e1757614e17614f32565b500190565b600060ff821660ff84168060ff03821115614e3957614e39614f32565b019392505050565b600082614e5e57634e487b7160e01b600052601260045260246000fd5b500490565b6000816000190483118215151615614e7d57614e7d614f32565b500290565b600082821015614e9457614e94614f32565b500390565b60005b83811015614eb4578181015183820152602001614e9c565b8381111561272c5750506000910152565b600081614ed457614ed4614f32565b506000190190565b600181811c90821680614ef057607f821691505b60208210811415614f1157634e487b7160e01b600052602260045260246000fd5b50919050565b6000600019821415614f2b57614f2b614f32565b5060010190565b634e487b7160e01b600052601160045260246000fd5b634e487b7160e01b600052603260045260246000fd5b634e487b7160e01b600052604160045260246000fd5b6001600160a01b0381168114612c6b57600080fdfed0a4ad96d49edb1c33461cebc6fb2609190f32c904e3c3f5877edb4488dee91ea2646970667358221220036ebc787c78d4484422e1bcdd498a6744800755def71f1e5434ecb0b9e2702164736f6c63430008070033",
  "linkReferences": {},
  "deployedLinkReferences": {}
}